{
  "contractName": "Football",
  "abi": [
    {
      "constant": true,
      "inputs": [],
      "name": "power_price",
      "outputs": [
        {
          "name": "",
          "type": "uint256"
        }
      ],
      "payable": false,
      "stateMutability": "view",
      "type": "function"
    },
    {
      "constant": true,
      "inputs": [],
      "name": "common_count",
      "outputs": [
        {
          "name": "",
          "type": "uint256"
        }
      ],
      "payable": false,
      "stateMutability": "view",
      "type": "function"
    },
    {
      "constant": true,
      "inputs": [],
      "name": "saleCardMap_cnt",
      "outputs": [
        {
          "name": "",
          "type": "uint256"
        }
      ],
      "payable": false,
      "stateMutability": "view",
      "type": "function"
    },
    {
      "constant": true,
      "inputs": [],
      "name": "userMap_cnt",
      "outputs": [
        {
          "name": "",
          "type": "uint256"
        }
      ],
      "payable": false,
      "stateMutability": "view",
      "type": "function"
    },
    {
      "constant": true,
      "inputs": [],
      "name": "rankMap_cnt",
      "outputs": [
        {
          "name": "",
          "type": "uint256"
        }
      ],
      "payable": false,
      "stateMutability": "view",
      "type": "function"
    },
    {
      "constant": true,
      "inputs": [],
      "name": "vip_card_price",
      "outputs": [
        {
          "name": "",
          "type": "uint256"
        }
      ],
      "payable": false,
      "stateMutability": "view",
      "type": "function"
    },
    {
      "constant": true,
      "inputs": [],
      "name": "randNonce",
      "outputs": [
        {
          "name": "",
          "type": "uint256"
        }
      ],
      "payable": false,
      "stateMutability": "view",
      "type": "function"
    },
    {
      "constant": true,
      "inputs": [],
      "name": "matchMap_cnt",
      "outputs": [
        {
          "name": "",
          "type": "uint256"
        }
      ],
      "payable": false,
      "stateMutability": "view",
      "type": "function"
    },
    {
      "constant": true,
      "inputs": [],
      "name": "cardMap_cnt",
      "outputs": [
        {
          "name": "",
          "type": "uint256"
        }
      ],
      "payable": false,
      "stateMutability": "view",
      "type": "function"
    },
    {
      "constant": true,
      "inputs": [],
      "name": "vip_count",
      "outputs": [
        {
          "name": "",
          "type": "uint256"
        }
      ],
      "payable": false,
      "stateMutability": "view",
      "type": "function"
    },
    {
      "constant": true,
      "inputs": [
        {
          "name": "",
          "type": "uint256"
        }
      ],
      "name": "playerArray",
      "outputs": [
        {
          "name": "playerId",
          "type": "uint256"
        },
        {
          "name": "playerName",
          "type": "bytes16"
        },
        {
          "name": "playerAttackValue",
          "type": "uint256"
        },
        {
          "name": "playerDefendValue",
          "type": "uint256"
        },
        {
          "name": "playerSpeedValue",
          "type": "uint256"
        },
        {
          "name": "playerPosition",
          "type": "uint256"
        },
        {
          "name": "playerExp",
          "type": "uint256"
        },
        {
          "name": "onMarket",
          "type": "bool"
        }
      ],
      "payable": false,
      "stateMutability": "view",
      "type": "function"
    },
    {
      "constant": true,
      "inputs": [],
      "name": "power_count",
      "outputs": [
        {
          "name": "",
          "type": "uint256"
        }
      ],
      "payable": false,
      "stateMutability": "view",
      "type": "function"
    },
    {
      "constant": true,
      "inputs": [],
      "name": "common_card_price",
      "outputs": [
        {
          "name": "",
          "type": "uint256"
        }
      ],
      "payable": false,
      "stateMutability": "view",
      "type": "function"
    },
    {
      "constant": true,
      "inputs": [],
      "name": "admin",
      "outputs": [
        {
          "name": "",
          "type": "address"
        }
      ],
      "payable": false,
      "stateMutability": "view",
      "type": "function"
    },
    {
      "inputs": [],
      "payable": false,
      "stateMutability": "nonpayable",
      "type": "constructor"
    },
    {
      "constant": false,
      "inputs": [],
      "name": "init_data",
      "outputs": [],
      "payable": false,
      "stateMutability": "nonpayable",
      "type": "function"
    },
    {
      "constant": true,
      "inputs": [
        {
          "name": "begin",
          "type": "uint256"
        },
        {
          "name": "end",
          "type": "uint256"
        }
      ],
      "name": "random",
      "outputs": [
        {
          "name": "",
          "type": "uint256"
        }
      ],
      "payable": false,
      "stateMutability": "view",
      "type": "function"
    },
    {
      "constant": true,
      "inputs": [],
      "name": "get_matchMap_cnt",
      "outputs": [
        {
          "name": "",
          "type": "uint256"
        }
      ],
      "payable": false,
      "stateMutability": "view",
      "type": "function"
    },
    {
      "constant": true,
      "inputs": [],
      "name": "get_address",
      "outputs": [
        {
          "name": "",
          "type": "address"
        }
      ],
      "payable": false,
      "stateMutability": "view",
      "type": "function"
    },
    {
      "constant": true,
      "inputs": [],
      "name": "get_userMap_cnt",
      "outputs": [
        {
          "name": "",
          "type": "uint256"
        }
      ],
      "payable": false,
      "stateMutability": "view",
      "type": "function"
    },
    {
      "constant": true,
      "inputs": [],
      "name": "get_cardMap_cnt",
      "outputs": [
        {
          "name": "",
          "type": "uint256"
        }
      ],
      "payable": false,
      "stateMutability": "view",
      "type": "function"
    },
    {
      "constant": true,
      "inputs": [],
      "name": "get_vip_count",
      "outputs": [
        {
          "name": "",
          "type": "uint256"
        }
      ],
      "payable": false,
      "stateMutability": "view",
      "type": "function"
    },
    {
      "constant": true,
      "inputs": [],
      "name": "get_common_count",
      "outputs": [
        {
          "name": "",
          "type": "uint256"
        }
      ],
      "payable": false,
      "stateMutability": "view",
      "type": "function"
    },
    {
      "constant": true,
      "inputs": [],
      "name": "get_power_count",
      "outputs": [
        {
          "name": "",
          "type": "uint256"
        }
      ],
      "payable": false,
      "stateMutability": "view",
      "type": "function"
    },
    {
      "constant": true,
      "inputs": [],
      "name": "get_saleCardMap_cnt",
      "outputs": [
        {
          "name": "",
          "type": "uint256"
        }
      ],
      "payable": false,
      "stateMutability": "view",
      "type": "function"
    },
    {
      "constant": true,
      "inputs": [],
      "name": "random_all_card",
      "outputs": [
        {
          "name": "",
          "type": "uint256"
        }
      ],
      "payable": false,
      "stateMutability": "view",
      "type": "function"
    },
    {
      "constant": true,
      "inputs": [],
      "name": "random_goalkeeper_card",
      "outputs": [
        {
          "name": "",
          "type": "uint256"
        }
      ],
      "payable": false,
      "stateMutability": "view",
      "type": "function"
    },
    {
      "constant": true,
      "inputs": [],
      "name": "random_not_goalkeeper_card",
      "outputs": [
        {
          "name": "",
          "type": "uint256"
        }
      ],
      "payable": false,
      "stateMutability": "view",
      "type": "function"
    },
    {
      "constant": true,
      "inputs": [],
      "name": "random_vip_card",
      "outputs": [
        {
          "name": "",
          "type": "uint256"
        }
      ],
      "payable": false,
      "stateMutability": "view",
      "type": "function"
    },
    {
      "constant": true,
      "inputs": [],
      "name": "random_common_card",
      "outputs": [
        {
          "name": "",
          "type": "uint256"
        }
      ],
      "payable": false,
      "stateMutability": "view",
      "type": "function"
    },
    {
      "constant": false,
      "inputs": [],
      "name": "get_admin",
      "outputs": [
        {
          "name": "",
          "type": "address"
        }
      ],
      "payable": false,
      "stateMutability": "nonpayable",
      "type": "function"
    }
  ],
  "bytecode": "0x60806040526000600c5534801561001557600080fd5b50336000806101000a81548173ffffffffffffffffffffffffffffffffffffffff021916908373ffffffffffffffffffffffffffffffffffffffff16021790555060018081905550600160028190555060016003819055506001600481905550600160058190555060016006819055506001600781905550600160088190555060036009819055506001600a819055506001600b819055506100c46100c9640100000000026401000000009004565b611b5f565b600d61010060405190810160405280600081526020017f6e756c6c000000000000000000000000000000000000000000000000000000006fffffffffffffffffffffffffffffffff19168152602001600081526020016000815260200160008152602001600081526020016000815260200160001515815250908060018154018082558091505090600182039060005260206000209060080201600090919290919091506000820151816000015560208201518160010160006101000a8154816fffffffffffffffffffffffffffffffff02191690837001000000000000000000000000000000009004021790555060408201518160020155606082015181600301556080820151816004015560a0820151816005015560c0820151816006015560e08201518160070160006101000a81548160ff021916908315150217905550505050600d61010060405190810160405280600181526020017f43e7bd97000000000000000000000000000000000000000000000000000000006fffffffffffffffffffffffffffffffff19168152602001605c815260200160218152602001605c8152602001600081526020016000815260200160001515815250908060018154018082558091505090600182039060005260206000209060080201600090919290919091506000820151816000015560208201518160010160006101000a8154816fffffffffffffffffffffffffffffffff02191690837001000000000000000000000000000000009004021790555060408201518160020155606082015181600301556080820151816004015560a0820151816005015560c0820151816006015560e08201518160070160006101000a81548160ff021916908315150217905550505050600d61010060405190810160405280600281526020017fe8b49de5b09400000000000000000000000000000000000000000000000000006fffffffffffffffffffffffffffffffff19168152602001606481526020016039815260200160648152602001600081526020016000815260200160001515815250908060018154018082558091505090600182039060005260206000209060080201600090919290919091506000820151816000015560208201518160010160006101000a8154816fffffffffffffffffffffffffffffffff02191690837001000000000000000000000000000000009004021790555060408201518160020155606082015181600301556080820151816004015560a0820151816005015560c0820151816006015560e08201518160070160006101000a81548160ff021916908315150217905550505050600d61010060405190810160405280600381526020017fe5a5a5e5b7b4e6a285e689ac00000000000000000000000000000000000000006fffffffffffffffffffffffffffffffff19168152602001605481526020016025815260200160608152602001600081526020016000815260200160001515815250908060018154018082558091505090600182039060005260206000209060080201600090919290919091506000820151816000015560208201518160010160006101000a8154816fffffffffffffffffffffffffffffffff02191690837001000000000000000000000000000000009004021790555060408201518160020155606082015181600301556080820151816004015560a0820151816005015560c0820151816006015560e08201518160070160006101000a81548160ff021916908315150217905550505050600d61010060405190810160405280600481526020017fe6a285e8a5bf00000000000000000000000000000000000000000000000000006fffffffffffffffffffffffffffffffff19168152602001605a8152602001601a815260200160598152602001600081526020016000815260200160001515815250908060018154018082558091505090600182039060005260206000209060080201600090919290919091506000820151816000015560208201518160010160006101000a8154816fffffffffffffffffffffffffffffffff02191690837001000000000000000000000000000000009004021790555060408201518160020155606082015181600301556080820151816004015560a0820151816005015560c0820151816006015560e08201518160070160006101000a81548160ff021916908315150217905550505050600d61010060405190810160405280600581526020017fe998bfe59cade7bd9700000000000000000000000000000000000000000000006fffffffffffffffffffffffffffffffff19168152602001605881526020016017815260200160598152602001600081526020016000815260200160001515815250908060018154018082558091505090600182039060005260206000209060080201600090919290919091506000820151816000015560208201518160010160006101000a8154816fffffffffffffffffffffffffffffffff02191690837001000000000000000000000000000000009004021790555060408201518160020155606082015181600301556080820151816004015560a0820151816005015560c0820151816006015560e08201518160070160006101000a81548160ff021916908315150217905550505050600d61010060405190810160405280600681526020017fe7bd97e4bc8ae696af00000000000000000000000000000000000000000000006fffffffffffffffffffffffffffffffff191681526020016055815260200160288152602001605a8152602001600081526020016000815260200160001515815250908060018154018082558091505090600182039060005260206000209060080201600090919290919091506000820151816000015560208201518160010160006101000a8154816fffffffffffffffffffffffffffffffff02191690837001000000000000000000000000000000009004021790555060408201518160020155606082015181600301556080820151816004015560a0820151816005015560c0820151816006015560e08201518160070160006101000a81548160ff021916908315150217905550505050600d61010060405190810160405280600781526020017fe8bfaae5b7b4e68b8900000000000000000000000000000000000000000000006fffffffffffffffffffffffffffffffff19168152602001605781526020016018815260200160588152602001600081526020016000815260200160001515815250908060018154018082558091505090600182039060005260206000209060080201600090919290919091506000820151816000015560208201518160010160006101000a8154816fffffffffffffffffffffffffffffffff02191690837001000000000000000000000000000000009004021790555060408201518160020155606082015181600301556080820151816004015560a0820151816005015560c0820151816006015560e08201518160070160006101000a81548160ff021916908315150217905550505050600d61010060405190810160405280600881526020017fe58685e9a9ace5b09400000000000000000000000000000000000000000000006fffffffffffffffffffffffffffffffff1916815260200160548152602001601e8152602001605b8152602001600081526020016000815260200160001515815250908060018154018082558091505090600182039060005260206000209060080201600090919290919091506000820151816000015560208201518160010160006101000a8154816fffffffffffffffffffffffffffffffff02191690837001000000000000000000000000000000009004021790555060408201518160020155606082015181600301556080820151816004015560a0820151816005015560c0820151816006015560e08201518160070160006101000a81548160ff021916908315150217905550505050600d61010060405190810160405280600981526020017fe793a6e5b094e8bfaa00000000000000000000000000000000000000000000006fffffffffffffffffffffffffffffffff191681526020016050815260200160368152602001605d8152602001600081526020016000815260200160001515815250908060018154018082558091505090600182039060005260206000209060080201600090919290919091506000820151816000015560208201518160010160006101000a8154816fffffffffffffffffffffffffffffffff02191690837001000000000000000000000000000000009004021790555060408201518160020155606082015181600301556080820151816004015560a0820151816005015560c0820151816006015560e08201518160070160006101000a81548160ff021916908315150217905550505050600d61010060405190810160405280600a81526020017fe88b8fe4ba9ae99bb7e696af00000000000000000000000000000000000000006fffffffffffffffffffffffffffffffff19168152602001605a8152602001602a815260200160528152602001600081526020016000815260200160001515815250908060018154018082558091505090600182039060005260206000209060080201600090919290919091506000820151816000015560208201518160010160006101000a8154816fffffffffffffffffffffffffffffffff02191690837001000000000000000000000000000000009004021790555060408201518160020155606082015181600301556080820151816004015560a0820151816005015560c0820151816006015560e08201518160070160006101000a81548160ff021916908315150217905550505050600d61010060405190810160405280600b81526020017fe883a1e5b094e5858b00000000000000000000000000000000000000000000006fffffffffffffffffffffffffffffffff1916815260200160578152602001602b815260200160558152602001600081526020016000815260200160001515815250908060018154018082558091505090600182039060005260206000209060080201600090919290919091506000820151816000015560208201518160010160006101000a8154816fffffffffffffffffffffffffffffffff02191690837001000000000000000000000000000000009004021790555060408201518160020155606082015181600301556080820151816004015560a0820151816005015560c0820151816006015560e08201518160070160006101000a81548160ff021916908315150217905550505050600d61010060405190810160405280600c81526020017fe6a0bce58897e585b9e69bbc00000000000000000000000000000000000000006fffffffffffffffffffffffffffffffff1916815260200160558152602001601e815260200160568152602001600081526020016000815260200160001515815250908060018154018082558091505090600182039060005260206000209060080201600090919290919091506000820151816000015560208201518160010160006101000a8154816fffffffffffffffffffffffffffffffff02191690837001000000000000000000000000000000009004021790555060408201518160020155606082015181600301556080820151816004015560a0820151816005015560c0820151816006015560e08201518160070160006101000a81548160ff021916908315150217905550505050600d61010060405190810160405280600d81526020017fe998bfe6898ee5b09400000000000000000000000000000000000000000000006fffffffffffffffffffffffffffffffff191681526020016051815260200160208152602001605a8152602001600081526020016000815260200160001515815250908060018154018082558091505090600182039060005260206000209060080201600090919290919091506000820151816000015560208201518160010160006101000a8154816fffffffffffffffffffffffffffffffff02191690837001000000000000000000000000000000009004021790555060408201518160020155606082015181600301556080820151816004015560a0820151816005015560c0820151816006015560e08201518160070160006101000a81548160ff021916908315150217905550505050600d61010060405190810160405280600e81526020017fe7bd97e69cac00000000000000000000000000000000000000000000000000006fffffffffffffffffffffffffffffffff19168152602001605581526020016020815260200160568152602001600081526020016000815260200160001515815250908060018154018082558091505090600182039060005260206000209060080201600090919290919091506000820151816000015560208201518160010160006101000a8154816fffffffffffffffffffffffffffffffff02191690837001000000000000000000000000000000009004021790555060408201518160020155606082015181600301556080820151816004015560a0820151816005015560c0820151816006015560e08201518160070160006101000a81548160ff021916908315150217905550505050600d61010060405190810160405280600f81526020017fe6b283e5b094e7a791e789b900000000000000000000000000000000000000006fffffffffffffffffffffffffffffffff19168152602001604d815260200160268152602001605d8152602001600081526020016000815260200160001515815250908060018154018082558091505090600182039060005260206000209060080201600090919290919091506000820151816000015560208201518160010160006101000a8154816fffffffffffffffffffffffffffffffff02191690837001000000000000000000000000000000009004021790555060408201518160020155606082015181600301556080820151816004015560a0820151816005015560c0820151816006015560e08201518160070160006101000a81548160ff021916908315150217905550505050600d61010060405190810160405280601081526020017fe6a191e58887e696af00000000000000000000000000000000000000000000006fffffffffffffffffffffffffffffffff19168152602001605481526020016028815260200160568152602001600081526020016000815260200160001515815250908060018154018082558091505090600182039060005260206000209060080201600090919290919091506000820151816000015560208201518160010160006101000a8154816fffffffffffffffffffffffffffffffff02191690837001000000000000000000000000000000009004021790555060408201518160020155606082015181600301556080820151816004015560a0820151816005015560c0820151816006015560e08201518160070160006101000a81548160ff021916908315150217905550505050600d61010060405190810160405280601181526020017fe9a9ace5a48fe5b09400000000000000000000000000000000000000000000006fffffffffffffffffffffffffffffffff19168152602001604f8152602001602a8152602001605b8152602001600081526020016000815260200160001515815250908060018154018082558091505090600182039060005260206000209060080201600090919290919091506000820151816000015560208201518160010160006101000a8154816fffffffffffffffffffffffffffffffff02191690837001000000000000000000000000000000009004021790555060408201518160020155606082015181600301556080820151816004015560a0820151816005015560c0820151816006015560e08201518160070160006101000a81548160ff021916908315150217905550505050600d61010060405190810160405280601281526020017fe7a791e696afe5a19400000000000000000000000000000000000000000000006fffffffffffffffffffffffffffffffff19168152602001604e815260200160318152602001605c8152602001600081526020016000815260200160001515815250908060018154018082558091505090600182039060005260206000209060080201600090919290919091506000820151816000015560208201518160010160006101000a8154816fffffffffffffffffffffffffffffffff02191690837001000000000000000000000000000000009004021790555060408201518160020155606082015181600301556080820151816004015560a0820151816005015560c0820151816006015560e08201518160070160006101000a81548160ff021916908315150217905550505050600d61010060405190810160405280601381526020017fe99bb7e7b1b300000000000000000000000000000000000000000000000000006fffffffffffffffffffffffffffffffff19168152602001605081526020016022815260200160598152602001600081526020016000815260200160001515815250908060018154018082558091505090600182039060005260206000209060080201600090919290919091506000820151816000015560208201518160010160006101000a8154816fffffffffffffffffffffffffffffffff02191690837001000000000000000000000000000000009004021790555060408201518160020155606082015181600301556080820151816004015560a0820151816005015560c0820151816006015560e08201518160070160006101000a81548160ff021916908315150217905550505050600d61010060405190810160405280601481526020017fe5a881e5bb89e5a786e696af00000000000000000000000000000000000000006fffffffffffffffffffffffffffffffff19168152602001604b815260200160228152602001605e8152602001600081526020016000815260200160001515815250908060018154018082558091505090600182039060005260206000209060080201600090919290919091506000820151816000015560208201518160010160006101000a8154816fffffffffffffffffffffffffffffffff02191690837001000000000000000000000000000000009004021790555060408201518160020155606082015181600301556080820151816004015560a0820151816005015560c0820151816006015560e08201518160070160006101000a81548160ff021916908315150217905550505050565b61253d80611b6e6000396000f3fe608060405260043610610180576000357c0100000000000000000000000000000000000000000000000000000000900463ffffffff1680630131222f14610185578063099432db146101dc57806309f4f075146102075780630b8fd8f51461023257806324dab1741461025d578063289b7de71461028857806329ca1169146102b35780633c74a091146102de57806340b8e144146103095780634a16066d146103345780634c6d37041461035f57806352b3c7411461037657806354c7c612146103a1578063580d17ca146103f85780635f8f447a1461042357806361e013561461044e57806376a21f351461047957806376e113a3146104a45780638659c808146104cf578063874bd515146104fa578063a9dd122514610525578063aee8a97c1461057e578063b18f41c2146105a9578063b61d380d146105d4578063b6fc4fdc1461067e578063c3a706cd146106a9578063dac80acc146106d4578063e2b862cc146106ff578063ec36c6341461072a578063f851a44014610755575b600080fd5b34801561019157600080fd5b5061019a6107ac565b604051808273ffffffffffffffffffffffffffffffffffffffff1673ffffffffffffffffffffffffffffffffffffffff16815260200191505060405180910390f35b3480156101e857600080fd5b506101f16107b4565b6040518082815260200191505060405180910390f35b34801561021357600080fd5b5061021c6107c7565b6040518082815260200191505060405180910390f35b34801561023e57600080fd5b506102476107d1565b6040518082815260200191505060405180910390f35b34801561026957600080fd5b506102726107d7565b6040518082815260200191505060405180910390f35b34801561029457600080fd5b5061029d6107e1565b6040518082815260200191505060405180910390f35b3480156102bf57600080fd5b506102c86107e7565b6040518082815260200191505060405180910390f35b3480156102ea57600080fd5b506102f36107ed565b6040518082815260200191505060405180910390f35b34801561031557600080fd5b5061031e6107f3565b6040518082815260200191505060405180910390f35b34801561034057600080fd5b506103496107f9565b6040518082815260200191505060405180910390f35b34801561036b57600080fd5b5061037461080d565b005b34801561038257600080fd5b5061038b6122a3565b6040518082815260200191505060405180910390f35b3480156103ad57600080fd5b506103b66122a9565b604051808273ffffffffffffffffffffffffffffffffffffffff1673ffffffffffffffffffffffffffffffffffffffff16815260200191505060405180910390f35b34801561040457600080fd5b5061040d6122d2565b6040518082815260200191505060405180910390f35b34801561042f57600080fd5b506104386122e5565b6040518082815260200191505060405180910390f35b34801561045a57600080fd5b506104636122ef565b6040518082815260200191505060405180910390f35b34801561048557600080fd5b5061048e6122f5565b6040518082815260200191505060405180910390f35b3480156104b057600080fd5b506104b96122fb565b6040518082815260200191505060405180910390f35b3480156104db57600080fd5b506104e4612301565b6040518082815260200191505060405180910390f35b34801561050657600080fd5b5061050f612307565b6040518082815260200191505060405180910390f35b34801561053157600080fd5b506105686004803603604081101561054857600080fd5b810190808035906020019092919080359060200190929190505050612311565b6040518082815260200191505060405180910390f35b34801561058a57600080fd5b5061059361241b565b6040518082815260200191505060405180910390f35b3480156105b557600080fd5b506105be61242e565b6040518082815260200191505060405180910390f35b3480156105e057600080fd5b5061060d600480360360208110156105f757600080fd5b8101908080359060200190929190505050612438565b60405180898152602001886fffffffffffffffffffffffffffffffff19166fffffffffffffffffffffffffffffffff19168152602001878152602001868152602001858152602001848152602001838152602001821515151581526020019850505050505050505060405180910390f35b34801561068a57600080fd5b506106936124b9565b6040518082815260200191505060405180910390f35b3480156106b557600080fd5b506106be6124c3565b6040518082815260200191505060405180910390f35b3480156106e057600080fd5b506106e96124c9565b6040518082815260200191505060405180910390f35b34801561070b57600080fd5b506107146124d3565b6040518082815260200191505060405180910390f35b34801561073657600080fd5b5061073f6124d9565b6040518082815260200191505060405180910390f35b34801561076157600080fd5b5061076a6124ec565b604051808273ffffffffffffffffffffffffffffffffffffffff1673ffffffffffffffffffffffffffffffffffffffff16815260200191505060405180910390f35b600033905090565b60006107c260016052612311565b905090565b6000600154905090565b600b5481565b6000600854905090565b60025481565b60085481565b60015481565b60045481565b6000610808600161012d612311565b905090565b600d61010060405190810160405280600081526020017f6e756c6c000000000000000000000000000000000000000000000000000000006fffffffffffffffffffffffffffffffff19168152602001600081526020016000815260200160008152602001600081526020016000815260200160001515815250908060018154018082558091505090600182039060005260206000209060080201600090919290919091506000820151816000015560208201518160010160006101000a8154816fffffffffffffffffffffffffffffffff02191690837001000000000000000000000000000000009004021790555060408201518160020155606082015181600301556080820151816004015560a0820151816005015560c0820151816006015560e08201518160070160006101000a81548160ff021916908315150217905550505050600d61010060405190810160405280600181526020017f43e7bd97000000000000000000000000000000000000000000000000000000006fffffffffffffffffffffffffffffffff19168152602001605c815260200160218152602001605c8152602001600081526020016000815260200160001515815250908060018154018082558091505090600182039060005260206000209060080201600090919290919091506000820151816000015560208201518160010160006101000a8154816fffffffffffffffffffffffffffffffff02191690837001000000000000000000000000000000009004021790555060408201518160020155606082015181600301556080820151816004015560a0820151816005015560c0820151816006015560e08201518160070160006101000a81548160ff021916908315150217905550505050600d61010060405190810160405280600281526020017fe8b49de5b09400000000000000000000000000000000000000000000000000006fffffffffffffffffffffffffffffffff19168152602001606481526020016039815260200160648152602001600081526020016000815260200160001515815250908060018154018082558091505090600182039060005260206000209060080201600090919290919091506000820151816000015560208201518160010160006101000a8154816fffffffffffffffffffffffffffffffff02191690837001000000000000000000000000000000009004021790555060408201518160020155606082015181600301556080820151816004015560a0820151816005015560c0820151816006015560e08201518160070160006101000a81548160ff021916908315150217905550505050600d61010060405190810160405280600381526020017fe5a5a5e5b7b4e6a285e689ac00000000000000000000000000000000000000006fffffffffffffffffffffffffffffffff19168152602001605481526020016025815260200160608152602001600081526020016000815260200160001515815250908060018154018082558091505090600182039060005260206000209060080201600090919290919091506000820151816000015560208201518160010160006101000a8154816fffffffffffffffffffffffffffffffff02191690837001000000000000000000000000000000009004021790555060408201518160020155606082015181600301556080820151816004015560a0820151816005015560c0820151816006015560e08201518160070160006101000a81548160ff021916908315150217905550505050600d61010060405190810160405280600481526020017fe6a285e8a5bf00000000000000000000000000000000000000000000000000006fffffffffffffffffffffffffffffffff19168152602001605a8152602001601a815260200160598152602001600081526020016000815260200160001515815250908060018154018082558091505090600182039060005260206000209060080201600090919290919091506000820151816000015560208201518160010160006101000a8154816fffffffffffffffffffffffffffffffff02191690837001000000000000000000000000000000009004021790555060408201518160020155606082015181600301556080820151816004015560a0820151816005015560c0820151816006015560e08201518160070160006101000a81548160ff021916908315150217905550505050600d61010060405190810160405280600581526020017fe998bfe59cade7bd9700000000000000000000000000000000000000000000006fffffffffffffffffffffffffffffffff19168152602001605881526020016017815260200160598152602001600081526020016000815260200160001515815250908060018154018082558091505090600182039060005260206000209060080201600090919290919091506000820151816000015560208201518160010160006101000a8154816fffffffffffffffffffffffffffffffff02191690837001000000000000000000000000000000009004021790555060408201518160020155606082015181600301556080820151816004015560a0820151816005015560c0820151816006015560e08201518160070160006101000a81548160ff021916908315150217905550505050600d61010060405190810160405280600681526020017fe7bd97e4bc8ae696af00000000000000000000000000000000000000000000006fffffffffffffffffffffffffffffffff191681526020016055815260200160288152602001605a8152602001600081526020016000815260200160001515815250908060018154018082558091505090600182039060005260206000209060080201600090919290919091506000820151816000015560208201518160010160006101000a8154816fffffffffffffffffffffffffffffffff02191690837001000000000000000000000000000000009004021790555060408201518160020155606082015181600301556080820151816004015560a0820151816005015560c0820151816006015560e08201518160070160006101000a81548160ff021916908315150217905550505050600d61010060405190810160405280600781526020017fe8bfaae5b7b4e68b8900000000000000000000000000000000000000000000006fffffffffffffffffffffffffffffffff19168152602001605781526020016018815260200160588152602001600081526020016000815260200160001515815250908060018154018082558091505090600182039060005260206000209060080201600090919290919091506000820151816000015560208201518160010160006101000a8154816fffffffffffffffffffffffffffffffff02191690837001000000000000000000000000000000009004021790555060408201518160020155606082015181600301556080820151816004015560a0820151816005015560c0820151816006015560e08201518160070160006101000a81548160ff021916908315150217905550505050600d61010060405190810160405280600881526020017fe58685e9a9ace5b09400000000000000000000000000000000000000000000006fffffffffffffffffffffffffffffffff1916815260200160548152602001601e8152602001605b8152602001600081526020016000815260200160001515815250908060018154018082558091505090600182039060005260206000209060080201600090919290919091506000820151816000015560208201518160010160006101000a8154816fffffffffffffffffffffffffffffffff02191690837001000000000000000000000000000000009004021790555060408201518160020155606082015181600301556080820151816004015560a0820151816005015560c0820151816006015560e08201518160070160006101000a81548160ff021916908315150217905550505050600d61010060405190810160405280600981526020017fe793a6e5b094e8bfaa00000000000000000000000000000000000000000000006fffffffffffffffffffffffffffffffff191681526020016050815260200160368152602001605d8152602001600081526020016000815260200160001515815250908060018154018082558091505090600182039060005260206000209060080201600090919290919091506000820151816000015560208201518160010160006101000a8154816fffffffffffffffffffffffffffffffff02191690837001000000000000000000000000000000009004021790555060408201518160020155606082015181600301556080820151816004015560a0820151816005015560c0820151816006015560e08201518160070160006101000a81548160ff021916908315150217905550505050600d61010060405190810160405280600a81526020017fe88b8fe4ba9ae99bb7e696af00000000000000000000000000000000000000006fffffffffffffffffffffffffffffffff19168152602001605a8152602001602a815260200160528152602001600081526020016000815260200160001515815250908060018154018082558091505090600182039060005260206000209060080201600090919290919091506000820151816000015560208201518160010160006101000a8154816fffffffffffffffffffffffffffffffff02191690837001000000000000000000000000000000009004021790555060408201518160020155606082015181600301556080820151816004015560a0820151816005015560c0820151816006015560e08201518160070160006101000a81548160ff021916908315150217905550505050600d61010060405190810160405280600b81526020017fe883a1e5b094e5858b00000000000000000000000000000000000000000000006fffffffffffffffffffffffffffffffff1916815260200160578152602001602b815260200160558152602001600081526020016000815260200160001515815250908060018154018082558091505090600182039060005260206000209060080201600090919290919091506000820151816000015560208201518160010160006101000a8154816fffffffffffffffffffffffffffffffff02191690837001000000000000000000000000000000009004021790555060408201518160020155606082015181600301556080820151816004015560a0820151816005015560c0820151816006015560e08201518160070160006101000a81548160ff021916908315150217905550505050600d61010060405190810160405280600c81526020017fe6a0bce58897e585b9e69bbc00000000000000000000000000000000000000006fffffffffffffffffffffffffffffffff1916815260200160558152602001601e815260200160568152602001600081526020016000815260200160001515815250908060018154018082558091505090600182039060005260206000209060080201600090919290919091506000820151816000015560208201518160010160006101000a8154816fffffffffffffffffffffffffffffffff02191690837001000000000000000000000000000000009004021790555060408201518160020155606082015181600301556080820151816004015560a0820151816005015560c0820151816006015560e08201518160070160006101000a81548160ff021916908315150217905550505050600d61010060405190810160405280600d81526020017fe998bfe6898ee5b09400000000000000000000000000000000000000000000006fffffffffffffffffffffffffffffffff191681526020016051815260200160208152602001605a8152602001600081526020016000815260200160001515815250908060018154018082558091505090600182039060005260206000209060080201600090919290919091506000820151816000015560208201518160010160006101000a8154816fffffffffffffffffffffffffffffffff02191690837001000000000000000000000000000000009004021790555060408201518160020155606082015181600301556080820151816004015560a0820151816005015560c0820151816006015560e08201518160070160006101000a81548160ff021916908315150217905550505050600d61010060405190810160405280600e81526020017fe7bd97e69cac00000000000000000000000000000000000000000000000000006fffffffffffffffffffffffffffffffff19168152602001605581526020016020815260200160568152602001600081526020016000815260200160001515815250908060018154018082558091505090600182039060005260206000209060080201600090919290919091506000820151816000015560208201518160010160006101000a8154816fffffffffffffffffffffffffffffffff02191690837001000000000000000000000000000000009004021790555060408201518160020155606082015181600301556080820151816004015560a0820151816005015560c0820151816006015560e08201518160070160006101000a81548160ff021916908315150217905550505050600d61010060405190810160405280600f81526020017fe6b283e5b094e7a791e789b900000000000000000000000000000000000000006fffffffffffffffffffffffffffffffff19168152602001604d815260200160268152602001605d8152602001600081526020016000815260200160001515815250908060018154018082558091505090600182039060005260206000209060080201600090919290919091506000820151816000015560208201518160010160006101000a8154816fffffffffffffffffffffffffffffffff02191690837001000000000000000000000000000000009004021790555060408201518160020155606082015181600301556080820151816004015560a0820151816005015560c0820151816006015560e08201518160070160006101000a81548160ff021916908315150217905550505050600d61010060405190810160405280601081526020017fe6a191e58887e696af00000000000000000000000000000000000000000000006fffffffffffffffffffffffffffffffff19168152602001605481526020016028815260200160568152602001600081526020016000815260200160001515815250908060018154018082558091505090600182039060005260206000209060080201600090919290919091506000820151816000015560208201518160010160006101000a8154816fffffffffffffffffffffffffffffffff02191690837001000000000000000000000000000000009004021790555060408201518160020155606082015181600301556080820151816004015560a0820151816005015560c0820151816006015560e08201518160070160006101000a81548160ff021916908315150217905550505050600d61010060405190810160405280601181526020017fe9a9ace5a48fe5b09400000000000000000000000000000000000000000000006fffffffffffffffffffffffffffffffff19168152602001604f8152602001602a8152602001605b8152602001600081526020016000815260200160001515815250908060018154018082558091505090600182039060005260206000209060080201600090919290919091506000820151816000015560208201518160010160006101000a8154816fffffffffffffffffffffffffffffffff02191690837001000000000000000000000000000000009004021790555060408201518160020155606082015181600301556080820151816004015560a0820151816005015560c0820151816006015560e08201518160070160006101000a81548160ff021916908315150217905550505050600d61010060405190810160405280601281526020017fe7a791e696afe5a19400000000000000000000000000000000000000000000006fffffffffffffffffffffffffffffffff19168152602001604e815260200160318152602001605c8152602001600081526020016000815260200160001515815250908060018154018082558091505090600182039060005260206000209060080201600090919290919091506000820151816000015560208201518160010160006101000a8154816fffffffffffffffffffffffffffffffff02191690837001000000000000000000000000000000009004021790555060408201518160020155606082015181600301556080820151816004015560a0820151816005015560c0820151816006015560e08201518160070160006101000a81548160ff021916908315150217905550505050600d61010060405190810160405280601381526020017fe99bb7e7b1b300000000000000000000000000000000000000000000000000006fffffffffffffffffffffffffffffffff19168152602001605081526020016022815260200160598152602001600081526020016000815260200160001515815250908060018154018082558091505090600182039060005260206000209060080201600090919290919091506000820151816000015560208201518160010160006101000a8154816fffffffffffffffffffffffffffffffff02191690837001000000000000000000000000000000009004021790555060408201518160020155606082015181600301556080820151816004015560a0820151816005015560c0820151816006015560e08201518160070160006101000a81548160ff021916908315150217905550505050600d61010060405190810160405280601481526020017fe5a881e5bb89e5a786e696af00000000000000000000000000000000000000006fffffffffffffffffffffffffffffffff19168152602001604b815260200160228152602001605e8152602001600081526020016000815260200160001515815250908060018154018082558091505090600182039060005260206000209060080201600090919290919091506000820151816000015560208201518160010160006101000a8154816fffffffffffffffffffffffffffffffff02191690837001000000000000000000000000000000009004021790555060408201518160020155606082015181600301556080820151816004015560a0820151816005015560c0820151816006015560e08201518160070160006101000a81548160ff021916908315150217905550505050565b600a5481565b60008060009054906101000a900473ffffffffffffffffffffffffffffffffffffffff16905090565b60006122e06001603d612311565b905090565b6000600354905090565b600c5481565b60075481565b60055481565b60035481565b6000600254905090565b600080838303426040516020018082815260200191505060405160208183030381529060405233600c54446040516020018085805190602001908083835b602083101515612374578051825260208201915060208101905060208303925061234f565b6001836020036101000a0380198251168184511680821785525050505050509050018473ffffffffffffffffffffffffffffffffffffffff1673ffffffffffffffffffffffffffffffffffffffff166c01000000000000000000000000028152601401838152602001828152602001945050505050604051602081830303815290604052805190602001206001900481151561240c57fe5b06905083810191505092915050565b6000612429600160f0612311565b905090565b6000600654905090565b600d8181548110151561244757fe5b90600052602060002090600802016000915090508060000154908060010160009054906101000a900470010000000000000000000000000000000002908060020154908060030154908060040154908060050154908060060154908060070160009054906101000a900460ff16905088565b6000600554905090565b60065481565b6000600754905090565b60095481565b60006124e7600160db612311565b905090565b6000809054906101000a900473ffffffffffffffffffffffffffffffffffffffff168156fea165627a7a723058201b88f49601043a3e44d5b445f00975fb2636f16e2eab735b154f96c46e402c9e0029",
  "source": "pragma solidity >=0.4.21;\n\ncontract Football {\n    struct Player{\n        uint256 playerId;\n        bytes16 playerName;\n        uint256 playerAttackValue;\n        uint256 playerDefendValue;\n        uint256 playerSpeedValue;\n        uint256 playerPosition;//0:attack 1:defend 2:goalkeeper\n        uint256 playerExp;\n        bool onMarket;\n    }\n    address public admin;\n    uint256 public userMap_cnt;\n    uint256 public common_count;\n    uint256 public vip_count;\n    uint256 public rankMap_cnt;\n    uint256 public cardMap_cnt;\n    uint256 public power_count;\n    uint256 public matchMap_cnt;\n    uint256 public saleCardMap_cnt ;\n    uint256 public common_card_price ;\n    uint256 public vip_card_price;\n    uint256 public power_price;\n    uint256 public randNonce = 0;\n    Player[] public playerArray;\n    constructor() public{\n        admin = msg.sender;\n        userMap_cnt = 1;\n        common_count = 1;\n        vip_count = 1;\n        rankMap_cnt = 1;\n        cardMap_cnt = 1;\n        power_count = 1;\n        matchMap_cnt = 1;\n        saleCardMap_cnt = 1;\n        common_card_price = 3;\n        vip_card_price = 1;\n        power_price = 1;\n        init_data();\n    }\n    \n    function init_data()public{\n        playerArray.push(Player(0,\"null\",0,0,0,0,0, false));\n        playerArray.push(Player(1,\"C\",92,33,92,0,0, false));\n        playerArray.push(Player(2,\"\",100,57,100,0,0, false));\n        playerArray.push(Player(3,\"\",84,37,96,0,0, false));\n        playerArray.push(Player(4,\"\",90,26,89,0,0, false));\n        playerArray.push(Player(5,\"\",88,23,89,0,0, false));\n        playerArray.push(Player(6,\"\",85,40,90,0,0, false));\n        playerArray.push(Player(7,\"\",87,24,88,0,0, false));\n        playerArray.push(Player(8,\"\",84,30,91,0,0, false));\n        playerArray.push(Player(9,\"\",80,54,93,0,0, false));\n        playerArray.push(Player(10,\"\",90,42,82,0,0, false));\n        playerArray.push(Player(11,\"\",87,43,85,0,0, false));\n        playerArray.push(Player(12,\"\",85,30,86,0,0, false));\n        playerArray.push(Player(13,\"\",81,32,90,0,0, false));\n        playerArray.push(Player(14,\"\",85,32,86,0,0, false));\n        playerArray.push(Player(15,\"\",77,38,93,0,0, false));\n        playerArray.push(Player(16,\"\",84,40,86,0,0, false));\n        playerArray.push(Player(17,\"\",79,42,91,0,0, false));\n        playerArray.push(Player(18,\"\",78,49,92,0,0, false));\n        playerArray.push(Player(19,\"\",80,34,89,0,0, false));\n        playerArray.push(Player(20,\"\",75,34,94,0,0, false));\n        // playerArray.push(Player(21,\"\",83,38,86,0,0, false));\n        // playerArray.push(Player(22,\"\",76,36,93,0,0, false));\n        // playerArray.push(Player(23,\"-\",76,19,93,0,0, false));\n        // playerArray.push(Player(24,\"\",79,33,90,0,0, false));\n        // playerArray.push(Player(25,\"\",81,36,88,0,0, false));\n        // playerArray.push(Player(26,\"\",87,38,81,0,0, false));\n        // playerArray.push(Player(27,\"\",76,58,92,0,0, false));\n        // playerArray.push(Player(28,\"\",78,35,90,0,0, false));\n        // playerArray.push(Player(29,\"\",77,33,91,0,0, false));\n        // playerArray.push(Player(30,\"\",75,35,92,0,0, false));\n        // playerArray.push(Player(31,\"\",69,81,93,1,0, false));\n        // playerArray.push(Player(32,\"-\",63,79,90,1,0, false));\n        // playerArray.push(Player(33,\"\",73,82,86,1,0, false));\n        // playerArray.push(Player(34,\"\",54,75,92,1,0, false));\n        // playerArray.push(Player(35,\"\",66,79,87,1,0, false));\n        // playerArray.push(Player(36,\"\",64,79,87,1,0, false));\n        // playerArray.push(Player(37,\"\",42,84,82,1,0, false));\n        // playerArray.push(Player(38,\"\",70,78,87,1,0, false));\n        // playerArray.push(Player(39,\"\",66,80,85,1,0, false));\n        // playerArray.push(Player(40,\"\",61,79,86,1,0, false));\n        // playerArray.push(Player(41,\"\",63,87,78,1,0, false));\n        // playerArray.push(Player(42,\"-\",51,79,86,1,0, false));\n        // playerArray.push(Player(43,\"D\",57,90,74,1,0, false));\n        // playerArray.push(Player(44,\"\",70,80,83,1,0, false));\n        // playerArray.push(Player(45,\"\",66,81,82,1,0, false));\n        // playerArray.push(Player(46,\"\",58,75,88,1,0, false));\n        // playerArray.push(Player(47,\"\",58,79,84,1,0, false));\n        // playerArray.push(Player(48,\"\",56,84,79,1,0, false));\n        // playerArray.push(Player(49,\"\",45,81,82,1,0, false));\n        // playerArray.push(Player(50,\"\",40,85,78,1,0, false));\n        // playerArray.push(Player(51,\"\",62,74,88,1,0, false));\n        // playerArray.push(Player(52,\"\",67,83,79,1,0, false));\n        // playerArray.push(Player(53,\"\",62,82,80,1,0, false));\n        // playerArray.push(Player(54,\"\",45,85,77,1,0, false));\n        // playerArray.push(Player(55,\"\",69,82,79,1,0, false));\n        // playerArray.push(Player(56,\"-\",67,80,81,1,0, false));\n        // playerArray.push(Player(57,\"\",50,75,86,1,0, false));\n        // playerArray.push(Player(58,\"\",46,84,77,1,0, false));\n        // playerArray.push(Player(59,\"\",67,69,91,1,0, false));\n        // playerArray.push(Player(60,\"\",68,81,79,1,0, false));\n        // playerArray.push(Player(61,\"-\",63,78,82,1,0, false));\n        // playerArray.push(Player(62,\"\",1,87,64,2,0, false));\n        // playerArray.push(Player(63,\"\",1,89,60,2,0, false));\n        // playerArray.push(Player(64,\"\",1,86,62,2,0, false));\n        // playerArray.push(Player(65,\"\",1,81,63,2,0, false));\n        // playerArray.push(Player(66,\"\",1,83,61,2,0, false));\n        // playerArray.push(Player(67,\"-\",1,84,60,2,0, false));\n        // playerArray.push(Player(68,\"\",1,88,56,2,0, false));\n        // playerArray.push(Player(69,\"\",1,87,56,2,0, false));\n        // playerArray.push(Player(70,\"\",1,81,61,2,0, false));\n        // playerArray.push(Player(71,\"-\",1,82,60,2,0, false));\n        // playerArray.push(Player(72,\"\",1,86,56,2,0, false));\n        // playerArray.push(Player(73,\"\",1,84,56,2,0, false));\n        // playerArray.push(Player(74,\"\",1,83,56,2,0, false));\n        // playerArray.push(Player(75,\"\",1,83,55,2,0, false));\n        // playerArray.push(Player(76,\"\",1,79,58,2,0, false));\n        // playerArray.push(Player(77,\"\",1,80,57,2,0, false));\n        // playerArray.push(Player(78,\"\",1,84,53,2,0, false));\n        // playerArray.push(Player(79,\"\",1,79,57,2,0, false));\n        // playerArray.push(Player(80,\"\",1,80,56,2,0, false));\n        // playerArray.push(Player(81,\"\",1,100,100,2,0, false));\n        // playerArray.push(Player(82,\"\",51,75,95,0,0, false));\n        // playerArray.push(Player(83,\"\",79,76,85,0,0, false));\n        // playerArray.push(Player(84,\"\",81,84,77,0,0, false));\n        // playerArray.push(Player(85,\"\",80,81,79,0,0, false));\n        // playerArray.push(Player(86,\"\",66,81,79,1,0, false));\n        // playerArray.push(Player(87,\"\",59,79,81,1,0, false));\n        // playerArray.push(Player(88,\"\",58,80,80,1,0, false));\n        // playerArray.push(Player(89,\"\",51,83,77,1,0, false));\n        // playerArray.push(Player(90,\"\",68,70,89,1,0, false));\n        // playerArray.push(Player(91,\"\",62,71,88,1,0, false));\n        // playerArray.push(Player(92,\"\",67,77,82,1,0, false));\n        // playerArray.push(Player(93,\"-\",59,76,83,1,0, false));\n        // playerArray.push(Player(94,\"-\",64,84,75,1,0, false));\n        // playerArray.push(Player(95,\"\",46,70,89,1,0, false));\n        // playerArray.push(Player(96,\"\",72,74,84,1,0, false));\n        // playerArray.push(Player(97,\"\",70,78,80,1,0, false));\n        // playerArray.push(Player(98,\"\",69,79,79,1,0, false));\n        // playerArray.push(Player(99,\"\",51,65,93,1,0, false));\n        // playerArray.push(Player(100,\"\",69,86,72,1,0, false));\n        // playerArray.push(Player(101,\"\",55,77,81,1,0, false));\n        // playerArray.push(Player(102,\"-\",53,81,77,1,0, false));\n        // playerArray.push(Player(103,\"\",42,79,79,1,0, false));\n        // playerArray.push(Player(104,\"\",64,82,75,1,0, false));\n        // playerArray.push(Player(105,\"-\",47,76,81,1,0, false));\n        // playerArray.push(Player(106,\"\",46,84,73,1,0, false));\n        // playerArray.push(Player(107,\"\",38,84,73,1,0, false));\n        // playerArray.push(Player(108,\"\",67,71,85,1,0, false));\n        // playerArray.push(Player(109,\"\",70,75,81,1,0, false));\n        // playerArray.push(Player(110,\"\",57,70,86,1,0, false));\n        // playerArray.push(Player(111,\"\",64,79,77,1,0, false));\n        // playerArray.push(Player(112,\"\",74,76,79,1,0, false));\n        // playerArray.push(Player(113,\"\",62,70,85,1,0, false));\n        // playerArray.push(Player(114,\"A-\",51,74,81,1,0, false));\n        // playerArray.push(Player(115,\"\",49,73,82,1,0, false));\n        // playerArray.push(Player(116,\"\",65,63,91,0,0, false));\n        // playerArray.push(Player(117,\"\",75,77,77,1,0, false));\n        // playerArray.push(Player(118,\"\",67,80,74,1,0, false));\n        // playerArray.push(Player(119,\"\",57,74,80,1,0, false));\n        // playerArray.push(Player(120,\"\",65,84,70,1,0, false));\n        // playerArray.push(Player(121,\"\",55,76,78,1,0, false));\n        // playerArray.push(Player(122,\"-\",76,67,86,0,0, false));\n        // playerArray.push(Player(123,\"\",75,73,80,1,0, false));\n        // playerArray.push(Player(124,\"\",71,74,79,1,0, false));\n        // playerArray.push(Player(125,\"\",73,77,76,0,0, false));\n        // playerArray.push(Player(126,\"\",67,74,79,1,0, false));\n        // playerArray.push(Player(127,\"\",66,75,78,1,0, false));\n        // playerArray.push(Player(128,\"\",65,79,74,1,0, false));\n        // playerArray.push(Player(129,\"\",59,73,80,1,0, false));\n        // playerArray.push(Player(130,\"\",58,89,64,1,0, false));\n        // playerArray.push(Player(131,\"\",34,70,83,1,0, false));\n        // playerArray.push(Player(132,\"\",72,71,81,1,0, false));\n        // playerArray.push(Player(133,\"\",72,73,79,1,0, false));\n        // playerArray.push(Player(134,\"\",73,71,80,1,0, false));\n        // playerArray.push(Player(135,\"\",76,76,75,1,0, false));\n        // playerArray.push(Player(136,\"\",53,85,66,1,0, false));\n        // playerArray.push(Player(137,\"\",64,81,69,1,0, false));\n        // playerArray.push(Player(138,\"-\",64,82,68,1,0, false));\n        // playerArray.push(Player(139,\"\",77,76,73,1,0, false));\n        // playerArray.push(Player(140,\"\",62,82,67,1,0, false));\n        // playerArray.push(Player(141,\"\",69,76,72,1,0, false));\n        // playerArray.push(Player(142,\"\",79,60,87,0,0, false));\n        // playerArray.push(Player(143,\"\",79,60,87,1,0, false));\n        // playerArray.push(Player(144,\"\",72,73,74,1,0, false));\n        // playerArray.push(Player(145,\"\",71,74,73,1,0, false));\n        // playerArray.push(Player(146,\"\",76,81,66,1,0, false));\n        // playerArray.push(Player(147,\"\",67,76,71,1,0, false));\n        // playerArray.push(Player(148,\"\",72,69,77,1,0, false));\n        // playerArray.push(Player(149,\"\",74,78,68,1,0, false));\n        // playerArray.push(Player(150,\"\",69,79,67,1,0, false));\n        // playerArray.push(Player(151,\"\",70,73,72,1,0, false));\n        // playerArray.push(Player(152,\"\",74,73,71,1,0, false));\n        // playerArray.push(Player(153,\"\",65,77,67,1,0, false));\n        // playerArray.push(Player(154,\"\",39,81,63,1,0, false));\n        // playerArray.push(Player(155,\"\",67,69,74,1,0, false));\n        // playerArray.push(Player(156,\"\",70,72,69,1,0, false));\n        // playerArray.push(Player(157,\"\",71,46,93,0,0, false));\n        // playerArray.push(Player(158,\"\",73,49,90,0,0, false));\n        // playerArray.push(Player(159,\"\",27,66,72,1,0, false));\n        // playerArray.push(Player(160,\"-\",35,84,54,1,0, false));\n        // playerArray.push(Player(161,\"\",33,83,55,1,0, false));\n        // playerArray.push(Player(162,\"-\",74,44,93,0,0, false));\n        // playerArray.push(Player(163,\"\",72,45,92,0,0, false));\n        // playerArray.push(Player(164,\"\",78,52,85,0,0, false));\n        // playerArray.push(Player(165,\"\",80,56,81,0,0, false));\n        // playerArray.push(Player(166,\"\",70,68,69,1,0, false));\n        // playerArray.push(Player(167,\"\",70,73,64,1,0, false));\n        // playerArray.push(Player(168,\"\",71,78,59,1,0, false));\n        // playerArray.push(Player(169,\"\",47,74,63,1,0, false));\n        // playerArray.push(Player(170,\"-\",54,72,64,1,0, false));\n        // playerArray.push(Player(171,\"\",1,85,51,2,0, false));\n        // playerArray.push(Player(172,\"\",73,47,88,0,0, false));\n        // playerArray.push(Player(173,\"\",83,65,70,1,0, false));\n        // playerArray.push(Player(174,\"\",65,64,71,0,0, false));\n        // playerArray.push(Player(175,\"\",65,64,71,1,0, false));\n        // playerArray.push(Player(176,\"\",69,74,61,1,0, false));\n        // playerArray.push(Player(177,\"\",34,62,73,1,0, false));\n        // playerArray.push(Player(178,\"\",1,82,53,2,0, false));\n        // playerArray.push(Player(179,\"\",1,83,52,2,0, false));\n        // playerArray.push(Player(180,\"\",1,84,51,2,0, false));\n        // playerArray.push(Player(181,\"\",79,47,87,0,0, false));\n        // playerArray.push(Player(182,\"\",80,59,75,1,0, false));\n        // playerArray.push(Player(183,\"\",73,66,68,1,0, false));\n        // playerArray.push(Player(184,\"\",60,63,71,1,0, false));\n        // playerArray.push(Player(185,\"\",1,69,65,2,0, false));\n        // playerArray.push(Player(186,\"\",1,71,63,2,0, false));\n        // playerArray.push(Player(187,\"\",1,74,60,2,0, false));\n        // playerArray.push(Player(188,\"\",1,83,51,2,0, false));\n        // playerArray.push(Player(189,\"\",1,83,51,2,0, false));\n        // playerArray.push(Player(190,\"\",1,86,48,2,0, false));\n        // playerArray.push(Player(191,\"\",1,86,48,2,0, false));\n        // playerArray.push(Player(192,\"\",1,82,51,2,0, false));\n        // playerArray.push(Player(193,\"\",1,87,46,2,0, false));\n        // playerArray.push(Player(194,\"\",79,49,83,0,0, false));\n        // playerArray.push(Player(195,\"\",74,44,88,0,0, false));\n        // playerArray.push(Player(196,\"\",70,41,91,0,0, false));\n        // playerArray.push(Player(197,\"\",1,75,57,2,0, false));\n        // playerArray.push(Player(198,\"\",1,81,51,2,0, false));\n        // playerArray.push(Player(199,\"\",1,83,49,2,0, false));\n        // playerArray.push(Player(200,\"\",74,43,88,0,0, false));\n        // playerArray.push(Player(201,\"\",65,63,68,1,0, false));\n        // playerArray.push(Player(202,\"\",1,80,51,2,0, false));\n        // playerArray.push(Player(203,\"\",1,80,51,2,0, false));\n        // playerArray.push(Player(204,\"-\",1,82,49,2,0, false));\n        // playerArray.push(Player(205,\"\",73,42,88,0,0, false));\n        // playerArray.push(Player(206,\"\",57,52,78,0,0, false));\n        // playerArray.push(Player(207,\"\",74,75,55,1,0, false));\n        // playerArray.push(Player(208,\"\",1,82,48,2,0, false));\n        // playerArray.push(Player(209,\"\",71,39,90,0,0, false));\n        // playerArray.push(Player(210,\"\",72,45,84,0,0, false));\n        // playerArray.push(Player(211,\"\",76,42,86,0,0, false));\n        // playerArray.push(Player(212,\"\",73,39,89,0,0, false));\n        // playerArray.push(Player(213,\"\",67,56,72,0,0, false));\n        // playerArray.push(Player(214,\"\",1,80,48,2,0, false));\n        // playerArray.push(Player(215,\"\",1,83,45,2,0, false));\n        // playerArray.push(Player(216,\"\",72,35,92,0,0, false));\n        // playerArray.push(Player(217,\"\",71,34,93,0,0, false));\n        // playerArray.push(Player(218,\"\",1,84,43,2,0, false));\n        // playerArray.push(Player(219,\"\",75,34,92,0,0, false));\n        // playerArray.push(Player(220,\"\",79,42,84,0,0, false));\n        // playerArray.push(Player(221,\"\",1,76,50,2,0, false));\n        // playerArray.push(Player(222,\"\",1,82,44,2,0, false));\n        // playerArray.push(Player(223,\"\",1,83,43,2,0, false));\n        // playerArray.push(Player(224,\"\",73,34,91,0,0, false));\n        // playerArray.push(Player(225,\"\",75,36,89,0,0, false));\n        // playerArray.push(Player(226,\"\",1,80,45,2,0, false));\n        // playerArray.push(Player(227,\"\",1,82,43,2,0, false));\n        // playerArray.push(Player(228,\"-\",83,46,78,0,0, false));\n        // playerArray.push(Player(229,\"\",1,84,40,2,0, false));\n        // playerArray.push(Player(230,\"\",76,32,91,0,0, false));\n        // playerArray.push(Player(231,\"\",77,33,90,0,0, false));\n        // playerArray.push(Player(232,\"\",78,35,88,0,0, false));\n        // playerArray.push(Player(233,\"\",73,31,92,0,0, false));\n        // playerArray.push(Player(234,\"\",72,32,91,0,0, false));\n        // playerArray.push(Player(235,\"\",68,30,93,0,0, false));\n        // playerArray.push(Player(236,\"\",79,41,82,0,0, false));\n        // playerArray.push(Player(237,\"\",75,31,91,0,0, false));\n        // playerArray.push(Player(238,\"-\",82,40,82,0,0, false));\n        // playerArray.push(Player(239,\"\",76,35,87,0,0, false));\n        // playerArray.push(Player(240,\"\",69,32,90,0,0, false));\n        // playerArray.push(Player(241,\"\",75,32,89,0,0, false));\n        // playerArray.push(Player(242,\"\",74,31,90,0,0, false));\n        // playerArray.push(Player(243,\"\",70,28,93,0,0, false));\n        // playerArray.push(Player(244,\"\",73,40,81,0,0, false));\n        // playerArray.push(Player(245,\"\",77,30,90,0,0, false));\n        // playerArray.push(Player(246,\"-\",76,29,91,0,0, false));\n        // playerArray.push(Player(247,\"\",76,29,91,0,0, false));\n        // playerArray.push(Player(248,\"\",74,28,92,0,0, false));\n        // playerArray.push(Player(249,\"\",83,38,82,0,0, false));\n        // playerArray.push(Player(250,\"\",69,28,92,0,0, false));\n        // playerArray.push(Player(251,\"\",1,70,50,2,0, false));\n        // playerArray.push(Player(252,\"\",1,81,39,2,0, false));\n        // playerArray.push(Player(253,\"\",76,34,85,0,0, false));\n        // playerArray.push(Player(254,\"\",75,27,91,0,0, false));\n        // playerArray.push(Player(255,\"\",75,31,87,0,0, false));\n        // playerArray.push(Player(256,\"\",70,28,90,0,0, false));\n        // playerArray.push(Player(257,\"\",83,42,76,0,0, false));\n        // playerArray.push(Player(258,\"\",75,26,91,0,0, false));\n        // playerArray.push(Player(259,\"\",78,29,88,0,0, false));\n        // playerArray.push(Player(260,\"\",75,33,84,0,0, false));\n        // playerArray.push(Player(261,\"\",64,41,76,0,0, false));\n        // playerArray.push(Player(262,\"\",82,34,82,0,0, false));\n        // playerArray.push(Player(263,\"-\",70,23,93,0,0, false));\n        // playerArray.push(Player(264,\"\",70,24,92,0,0, false));\n        // playerArray.push(Player(265,\"J\",85,40,76,0,0, false));\n        // playerArray.push(Player(266,\"\",80,30,85,0,0, false));\n        // playerArray.push(Player(267,\"\",74,26,89,0,0, false));\n        // playerArray.push(Player(268,\"\",72,31,84,0,0, false));\n        // playerArray.push(Player(269,\"\",71,33,82,0,0, false));\n        // playerArray.push(Player(270,\"\",1,70,45,2,0, false));\n        // playerArray.push(Player(271,\"-\",74,23,91,0,0, false));\n        // playerArray.push(Player(272,\"-\",72,22,92,0,0, false));\n        // playerArray.push(Player(273,\"\",84,35,79,0,0, false));\n        // playerArray.push(Player(274,\"\",72,25,89,0,0, false));\n        // playerArray.push(Player(275,\"\",77,31,83,0,0, false));\n        // playerArray.push(Player(276,\"\",78,27,86,0,0, false));\n        // playerArray.push(Player(277,\"\",1,81,32,2,0, false));\n        // playerArray.push(Player(278,\"\",82,29,83,0,0, false));\n        // playerArray.push(Player(279,\"\",74,23,89,0,0, false));\n        // playerArray.push(Player(280,\"\",1,69,43,2,0, false));\n        // playerArray.push(Player(281,\"\",81,25,86,0,0, false));\n        // playerArray.push(Player(282,\"\",82,33,78,0,0, false));\n        // playerArray.push(Player(283,\"\",1,69,42,2,0, false));\n        // playerArray.push(Player(284,\"\",80,25,85,0,0, false));\n        // playerArray.push(Player(285,\"\",80,27,83,0,0, false));\n        // playerArray.push(Player(286,\"\",82,33,77,0,0, false));\n        // playerArray.push(Player(287,\"\",1,65,45,2,0, false));\n        // playerArray.push(Player(288,\"\",81,24,85,0,0, false));\n        // playerArray.push(Player(289,\"\",73,22,86,0,0, false));\n        // playerArray.push(Player(290,\"\",1,63,44,2,0, false));\n        // playerArray.push(Player(291,\"\",1,64,43,2,0, false));\n        // playerArray.push(Player(292,\"\",1,65,42,2,0, false));\n        // playerArray.push(Player(293,\"\",81,23,82,0,0, false));\n        // playerArray.push(Player(294,\"\",82,26,79,0,0, false));\n        // playerArray.push(Player(295,\"\",1,74,31,2,0, false));\n        // playerArray.push(Player(296,\"\",87,24,80,0,0, false));\n        // playerArray.push(Player(297,\"\",84,22,81,0,0, false));\n        // playerArray.push(Player(298,\"\",67,30,73,0,0, false));\n        // playerArray.push(Player(299,\"\",1,62,40,2,0, false));\n        // playerArray.push(Player(300,\"\",66,19,78,0,0, false));\n\n    }\n    \n    function random(uint256 begin,uint256 end) public view returns(uint256) {//[)\n        uint256 number = uint256(keccak256(abi.encodePacked(abi.encodePacked(now),msg.sender,randNonce,block.difficulty))) % (end-begin);\n        return number+begin;\n    }\n\n    function get_matchMap_cnt() public view returns(uint256) {\n        return matchMap_cnt;\n    }\n\n    function get_address() public view returns(address) {\n        return msg.sender;\n    }\n\n    function get_userMap_cnt() public view returns(uint256) {\n        return userMap_cnt;\n    }\n\n    function get_cardMap_cnt() public view returns(uint256) {\n        return cardMap_cnt;\n    }\n    \n    function get_vip_count() public view returns(uint256) {\n        return vip_count;\n    }\n\n    function get_common_count() public view returns(uint256) {\n        return common_count;\n    }\n\n    function get_power_count() public view returns(uint256) {\n        return power_count;\n    }\n\n    function get_saleCardMap_cnt() public view returns(uint256) {\n        return saleCardMap_cnt;\n    }\n    \n    function random_all_card() public view returns(uint256) {\n        return uint256(random(1,301));\n    }\n\n    function random_goalkeeper_card() public view returns(uint256) {\n        return random(1, 61);\n    }\n\n    function random_not_goalkeeper_card() public view returns(uint256) {\n        return uint256(random(1,240));\n    }\n\n    function random_vip_card() public view returns(uint256) {\n        return uint256(random(1,82));\n    }\n    function random_common_card() public view returns(uint256) {\n        return uint256(random(1,219));\n    }\n\n    function get_admin() public returns(address) {\n        return admin;\n    }\n   \n}\n",
  "sourcePath": "/home/hht/work/code/football/contracts/Football.sol",
  "compiler": {
    "name": "solc",
    "version": "0.5.0+commit.1d4f565a.Emscripten.clang"
  },
  "schemaVersion": "3.0.0",
  "updatedAt": "2018-12-29T05:30:26.622Z",
  "devdoc": {
    "methods": {}
  },
  "userdoc": {
    "methods": {}
  }
}