{
  "contractName": "Football",
  "abi": [
    {
      "constant": true,
      "inputs": [],
      "name": "power_price",
      "outputs": [
        {
          "name": "",
          "type": "uint256"
        }
      ],
      "payable": false,
      "stateMutability": "view",
      "type": "function",
      "signature": "0x0b8fd8f5"
    },
    {
      "constant": true,
      "inputs": [],
      "name": "common_count",
      "outputs": [
        {
          "name": "",
          "type": "uint256"
        }
      ],
      "payable": false,
      "stateMutability": "view",
      "type": "function",
      "signature": "0x289b7de7"
    },
    {
      "constant": true,
      "inputs": [],
      "name": "saleCardMap_cnt",
      "outputs": [
        {
          "name": "",
          "type": "uint256"
        }
      ],
      "payable": false,
      "stateMutability": "view",
      "type": "function",
      "signature": "0x29ca1169"
    },
    {
      "constant": true,
      "inputs": [],
      "name": "userMap_cnt",
      "outputs": [
        {
          "name": "",
          "type": "uint256"
        }
      ],
      "payable": false,
      "stateMutability": "view",
      "type": "function",
      "signature": "0x3c74a091"
    },
    {
      "constant": true,
      "inputs": [],
      "name": "rankMap_cnt",
      "outputs": [
        {
          "name": "",
          "type": "uint256"
        }
      ],
      "payable": false,
      "stateMutability": "view",
      "type": "function",
      "signature": "0x40b8e144"
    },
    {
      "constant": true,
      "inputs": [],
      "name": "vip_card_price",
      "outputs": [
        {
          "name": "",
          "type": "uint256"
        }
      ],
      "payable": false,
      "stateMutability": "view",
      "type": "function",
      "signature": "0x52b3c741"
    },
    {
      "constant": true,
      "inputs": [],
      "name": "matchMap_cnt",
      "outputs": [
        {
          "name": "",
          "type": "uint256"
        }
      ],
      "payable": false,
      "stateMutability": "view",
      "type": "function",
      "signature": "0x76a21f35"
    },
    {
      "constant": true,
      "inputs": [],
      "name": "cardMap_cnt",
      "outputs": [
        {
          "name": "",
          "type": "uint256"
        }
      ],
      "payable": false,
      "stateMutability": "view",
      "type": "function",
      "signature": "0x76e113a3"
    },
    {
      "constant": true,
      "inputs": [],
      "name": "vip_count",
      "outputs": [
        {
          "name": "",
          "type": "uint256"
        }
      ],
      "payable": false,
      "stateMutability": "view",
      "type": "function",
      "signature": "0x8659c808"
    },
    {
      "constant": true,
      "inputs": [
        {
          "name": "",
          "type": "uint256"
        }
      ],
      "name": "contest_map",
      "outputs": [
        {
          "name": "",
          "type": "uint256"
        }
      ],
      "payable": false,
      "stateMutability": "view",
      "type": "function",
      "signature": "0x86ab3773"
    },
    {
      "constant": true,
      "inputs": [
        {
          "name": "",
          "type": "address"
        },
        {
          "name": "",
          "type": "uint256"
        }
      ],
      "name": "user_card_map",
      "outputs": [
        {
          "name": "",
          "type": "uint256"
        }
      ],
      "payable": false,
      "stateMutability": "view",
      "type": "function",
      "signature": "0x981c01aa"
    },
    {
      "constant": true,
      "inputs": [
        {
          "name": "",
          "type": "uint256"
        }
      ],
      "name": "contest_list",
      "outputs": [
        {
          "name": "my_address",
          "type": "address"
        },
        {
          "name": "challenger_address",
          "type": "address"
        },
        {
          "name": "my_score",
          "type": "uint256"
        },
        {
          "name": "challenger_score",
          "type": "uint256"
        },
        {
          "name": "team_point",
          "type": "uint256"
        }
      ],
      "payable": false,
      "stateMutability": "view",
      "type": "function",
      "signature": "0xa4252b23"
    },
    {
      "constant": true,
      "inputs": [
        {
          "name": "",
          "type": "uint256"
        }
      ],
      "name": "user_list",
      "outputs": [
        {
          "name": "user_address",
          "type": "address"
        },
        {
          "name": "user_free",
          "type": "bool"
        },
        {
          "name": "last_time",
          "type": "uint256"
        },
        {
          "name": "power",
          "type": "uint256"
        },
        {
          "name": "user_card_cnt",
          "type": "uint256"
        },
        {
          "name": "user_contest_cnt",
          "type": "uint256"
        }
      ],
      "payable": false,
      "stateMutability": "view",
      "type": "function",
      "signature": "0xb0ce739d"
    },
    {
      "constant": true,
      "inputs": [
        {
          "name": "",
          "type": "uint256"
        }
      ],
      "name": "card_list",
      "outputs": [
        {
          "name": "card_id",
          "type": "uint256"
        },
        {
          "name": "owner",
          "type": "address"
        },
        {
          "name": "player_id",
          "type": "uint256"
        },
        {
          "name": "level",
          "type": "uint256"
        },
        {
          "name": "on_market",
          "type": "bool"
        }
      ],
      "payable": false,
      "stateMutability": "view",
      "type": "function",
      "signature": "0xb6864ecc"
    },
    {
      "constant": true,
      "inputs": [
        {
          "name": "",
          "type": "uint256"
        }
      ],
      "name": "card_map",
      "outputs": [
        {
          "name": "",
          "type": "uint256"
        }
      ],
      "payable": false,
      "stateMutability": "view",
      "type": "function",
      "signature": "0xb7e341a9"
    },
    {
      "constant": true,
      "inputs": [],
      "name": "power_count",
      "outputs": [
        {
          "name": "",
          "type": "uint256"
        }
      ],
      "payable": false,
      "stateMutability": "view",
      "type": "function",
      "signature": "0xc3a706cd"
    },
    {
      "constant": true,
      "inputs": [
        {
          "name": "",
          "type": "address"
        },
        {
          "name": "",
          "type": "uint256"
        }
      ],
      "name": "user_team_map",
      "outputs": [
        {
          "name": "",
          "type": "uint256"
        }
      ],
      "payable": false,
      "stateMutability": "view",
      "type": "function",
      "signature": "0xc3cdfb46"
    },
    {
      "constant": true,
      "inputs": [
        {
          "name": "",
          "type": "address"
        },
        {
          "name": "",
          "type": "uint256"
        }
      ],
      "name": "user_contest_map",
      "outputs": [
        {
          "name": "",
          "type": "uint256"
        }
      ],
      "payable": false,
      "stateMutability": "view",
      "type": "function",
      "signature": "0xd8c25b5d"
    },
    {
      "constant": true,
      "inputs": [
        {
          "name": "",
          "type": "address"
        }
      ],
      "name": "user_map",
      "outputs": [
        {
          "name": "",
          "type": "uint256"
        }
      ],
      "payable": false,
      "stateMutability": "view",
      "type": "function",
      "signature": "0xdc33b004"
    },
    {
      "constant": true,
      "inputs": [
        {
          "name": "",
          "type": "uint256"
        },
        {
          "name": "",
          "type": "uint256"
        }
      ],
      "name": "onmarket_map",
      "outputs": [
        {
          "name": "",
          "type": "uint256"
        }
      ],
      "payable": false,
      "stateMutability": "view",
      "type": "function",
      "signature": "0xe183859d"
    },
    {
      "constant": true,
      "inputs": [],
      "name": "common_card_price",
      "outputs": [
        {
          "name": "",
          "type": "uint256"
        }
      ],
      "payable": false,
      "stateMutability": "view",
      "type": "function",
      "signature": "0xe2b862cc"
    },
    {
      "constant": true,
      "inputs": [],
      "name": "admin",
      "outputs": [
        {
          "name": "",
          "type": "address"
        }
      ],
      "payable": false,
      "stateMutability": "view",
      "type": "function",
      "signature": "0xf851a440"
    },
    {
      "inputs": [],
      "payable": false,
      "stateMutability": "nonpayable",
      "type": "constructor",
      "signature": "constructor"
    },
    {
      "constant": true,
      "inputs": [
        {
          "name": "begin",
          "type": "uint256"
        },
        {
          "name": "end",
          "type": "uint256"
        }
      ],
      "name": "random",
      "outputs": [
        {
          "name": "",
          "type": "uint256"
        }
      ],
      "payable": false,
      "stateMutability": "view",
      "type": "function",
      "signature": "0xa9dd1225"
    },
    {
      "constant": true,
      "inputs": [],
      "name": "get_matchMap_cnt",
      "outputs": [
        {
          "name": "",
          "type": "uint256"
        }
      ],
      "payable": false,
      "stateMutability": "view",
      "type": "function",
      "signature": "0xdac80acc"
    },
    {
      "constant": true,
      "inputs": [],
      "name": "get_address",
      "outputs": [
        {
          "name": "",
          "type": "address"
        }
      ],
      "payable": false,
      "stateMutability": "view",
      "type": "function",
      "signature": "0x0131222f"
    },
    {
      "constant": true,
      "inputs": [],
      "name": "get_userMap_cnt",
      "outputs": [
        {
          "name": "",
          "type": "uint256"
        }
      ],
      "payable": false,
      "stateMutability": "view",
      "type": "function",
      "signature": "0x09f4f075"
    },
    {
      "constant": true,
      "inputs": [],
      "name": "get_cardMap_cnt",
      "outputs": [
        {
          "name": "",
          "type": "uint256"
        }
      ],
      "payable": false,
      "stateMutability": "view",
      "type": "function",
      "signature": "0xb6fc4fdc"
    },
    {
      "constant": true,
      "inputs": [],
      "name": "get_vip_count",
      "outputs": [
        {
          "name": "",
          "type": "uint256"
        }
      ],
      "payable": false,
      "stateMutability": "view",
      "type": "function",
      "signature": "0x5f8f447a"
    },
    {
      "constant": true,
      "inputs": [],
      "name": "get_common_count",
      "outputs": [
        {
          "name": "",
          "type": "uint256"
        }
      ],
      "payable": false,
      "stateMutability": "view",
      "type": "function",
      "signature": "0x874bd515"
    },
    {
      "constant": true,
      "inputs": [],
      "name": "get_power_count",
      "outputs": [
        {
          "name": "",
          "type": "uint256"
        }
      ],
      "payable": false,
      "stateMutability": "view",
      "type": "function",
      "signature": "0xb18f41c2"
    },
    {
      "constant": true,
      "inputs": [],
      "name": "get_saleCardMap_cnt",
      "outputs": [
        {
          "name": "",
          "type": "uint256"
        }
      ],
      "payable": false,
      "stateMutability": "view",
      "type": "function",
      "signature": "0x24dab174"
    },
    {
      "constant": true,
      "inputs": [],
      "name": "random_all_card",
      "outputs": [
        {
          "name": "",
          "type": "uint256"
        }
      ],
      "payable": false,
      "stateMutability": "view",
      "type": "function",
      "signature": "0x4a16066d"
    },
    {
      "constant": true,
      "inputs": [],
      "name": "random_goalkeeper_card",
      "outputs": [
        {
          "name": "",
          "type": "uint256"
        }
      ],
      "payable": false,
      "stateMutability": "view",
      "type": "function",
      "signature": "0x580d17ca"
    },
    {
      "constant": true,
      "inputs": [],
      "name": "random_not_goalkeeper_card",
      "outputs": [
        {
          "name": "",
          "type": "uint256"
        }
      ],
      "payable": false,
      "stateMutability": "view",
      "type": "function",
      "signature": "0xaee8a97c"
    },
    {
      "constant": true,
      "inputs": [],
      "name": "random_vip_card",
      "outputs": [
        {
          "name": "",
          "type": "uint256"
        }
      ],
      "payable": false,
      "stateMutability": "view",
      "type": "function",
      "signature": "0x099432db"
    },
    {
      "constant": true,
      "inputs": [],
      "name": "random_common_card",
      "outputs": [
        {
          "name": "",
          "type": "uint256"
        }
      ],
      "payable": false,
      "stateMutability": "view",
      "type": "function",
      "signature": "0xec36c634"
    },
    {
      "constant": true,
      "inputs": [],
      "name": "get_admin",
      "outputs": [
        {
          "name": "",
          "type": "address"
        }
      ],
      "payable": false,
      "stateMutability": "view",
      "type": "function",
      "signature": "0x54c7c612"
    },
    {
      "constant": true,
      "inputs": [
        {
          "name": "card_id",
          "type": "uint256"
        }
      ],
      "name": "get_card_id",
      "outputs": [
        {
          "name": "",
          "type": "uint256"
        }
      ],
      "payable": false,
      "stateMutability": "view",
      "type": "function",
      "signature": "0xa689737f"
    },
    {
      "constant": true,
      "inputs": [],
      "name": "get_common_card_price",
      "outputs": [
        {
          "name": "",
          "type": "uint256"
        }
      ],
      "payable": false,
      "stateMutability": "view",
      "type": "function",
      "signature": "0x855dcc6b"
    },
    {
      "constant": true,
      "inputs": [],
      "name": "get_vip_card_price",
      "outputs": [
        {
          "name": "",
          "type": "uint256"
        }
      ],
      "payable": false,
      "stateMutability": "view",
      "type": "function",
      "signature": "0x15b35963"
    },
    {
      "constant": true,
      "inputs": [],
      "name": "get_power_price",
      "outputs": [
        {
          "name": "",
          "type": "uint256"
        }
      ],
      "payable": false,
      "stateMutability": "view",
      "type": "function",
      "signature": "0x471bdc9e"
    },
    {
      "constant": false,
      "inputs": [
        {
          "name": "price",
          "type": "uint256"
        }
      ],
      "name": "set_common_card_price",
      "outputs": [],
      "payable": false,
      "stateMutability": "nonpayable",
      "type": "function",
      "signature": "0x61807f00"
    },
    {
      "constant": false,
      "inputs": [
        {
          "name": "price",
          "type": "uint256"
        }
      ],
      "name": "set_vip_card_price",
      "outputs": [],
      "payable": false,
      "stateMutability": "nonpayable",
      "type": "function",
      "signature": "0xdd5bf22d"
    },
    {
      "constant": false,
      "inputs": [
        {
          "name": "price",
          "type": "uint256"
        }
      ],
      "name": "set_power_price",
      "outputs": [],
      "payable": false,
      "stateMutability": "nonpayable",
      "type": "function",
      "signature": "0x71017b3b"
    },
    {
      "constant": true,
      "inputs": [],
      "name": "user_login",
      "outputs": [
        {
          "name": "",
          "type": "address"
        },
        {
          "name": "",
          "type": "bool"
        },
        {
          "name": "",
          "type": "uint256"
        },
        {
          "name": "",
          "type": "uint256"
        },
        {
          "name": "",
          "type": "uint256"
        },
        {
          "name": "",
          "type": "uint256"
        }
      ],
      "payable": false,
      "stateMutability": "view",
      "type": "function",
      "signature": "0xc4f77c37"
    },
    {
      "constant": true,
      "inputs": [],
      "name": "get_user_id",
      "outputs": [
        {
          "name": "",
          "type": "uint256"
        }
      ],
      "payable": false,
      "stateMutability": "view",
      "type": "function",
      "signature": "0x8c04bedc"
    },
    {
      "constant": true,
      "inputs": [],
      "name": "get_user_count",
      "outputs": [
        {
          "name": "",
          "type": "uint256"
        }
      ],
      "payable": false,
      "stateMutability": "view",
      "type": "function",
      "signature": "0xfd33482d"
    },
    {
      "constant": false,
      "inputs": [],
      "name": "user_register",
      "outputs": [],
      "payable": false,
      "stateMutability": "nonpayable",
      "type": "function",
      "signature": "0xf15ffb2b"
    }
  ],
  "bytecode": "0x608060405234801561001057600080fd5b5060008054600160a060020a0319163317905560018080556002819055600381815560048290556005829055600682905560078290556008829055600955600a819055600b5561005e6101b2565b506040805160c081018252600080825260016020830181815242948401948552606084018381526080850184815260a08601858152601080549586018155909552945160059093027f1b6847dc741a1b0cd08d278845f9d819d87b734759afb55fe2de5cb82a9ae6728101805493511515740100000000000000000000000000000000000000000260a060020a60ff0219600160a060020a0396909616600160a060020a031990951694909417949094169290921790925593517f1b6847dc741a1b0cd08d278845f9d819d87b734759afb55fe2de5cb82a9ae673850155517f1b6847dc741a1b0cd08d278845f9d819d87b734759afb55fe2de5cb82a9ae67484015590517f1b6847dc741a1b0cd08d278845f9d819d87b734759afb55fe2de5cb82a9ae675830155517f1b6847dc741a1b0cd08d278845f9d819d87b734759afb55fe2de5cb82a9ae676909101556101f4565b60c0604051908101604052806000600160a060020a03168152602001600015158152602001600081526020016000815260200160008152602001600081525090565b6119b9806102036000396000f3fe6080604052600436106102455763ffffffff7c01000000000000000000000000000000000000000000000000000000006000350416630131222f811461024a578063099432db1461027b57806309f4f075146102a25780630b8fd8f5146102b757806315b35963146102cc57806324dab174146102e1578063289b7de7146102f657806329ca11691461030b5780633c74a0911461032057806340b8e14414610335578063471bdc9e1461034a5780634a16066d1461035f57806352b3c7411461037457806354c7c61214610389578063580d17ca1461039e5780635f8f447a146103b357806361807f00146103c857806371017b3b146103f457806376a21f351461041e57806376e113a314610433578063855dcc6b146104485780638659c8081461045d57806386ab377314610472578063874bd5151461049c5780638c04bedc146104b1578063981c01aa146104c6578063a4252b23146104ff578063a689737f14610560578063a9dd12251461058a578063aee8a97c146105ba578063b0ce739d146105cf578063b18f41c214610636578063b6864ecc1461064b578063b6fc4fdc146106aa578063b7e341a9146106bf578063c3a706cd146106e9578063c3cdfb46146106fe578063c4f77c3714610737578063d8c25b5d1461074c578063dac80acc14610785578063dc33b0041461079a578063dd5bf22d146107cd578063e183859d146107f7578063e2b862cc14610827578063ec36c6341461083c578063f15ffb2b14610851578063f851a44014610866578063fd33482d1461087b575b600080fd5b34801561025657600080fd5b5061025f610890565b60408051600160a060020a039092168252519081900360200190f35b34801561028757600080fd5b50610290610894565b60408051918252519081900360200190f35b3480156102ae57600080fd5b506102906108a7565b3480156102c357600080fd5b506102906108ad565b3480156102d857600080fd5b506102906108b3565b3480156102ed57600080fd5b506102906108b9565b34801561030257600080fd5b506102906108bf565b34801561031757600080fd5b506102906108c5565b34801561032c57600080fd5b506102906108cb565b34801561034157600080fd5b506102906108d1565b34801561035657600080fd5b506102906108d7565b34801561036b57600080fd5b506102906108dd565b34801561038057600080fd5b506102906108ec565b34801561039557600080fd5b5061025f6108f2565b3480156103aa57600080fd5b50610290610901565b3480156103bf57600080fd5b50610290610b26565b3480156103d457600080fd5b506103f2600480360360208110156103eb57600080fd5b5035610b2c565b005b34801561040057600080fd5b506103f26004803603602081101561041757600080fd5b5035610b48565b34801561042a57600080fd5b50610290610b64565b34801561043f57600080fd5b50610290610b6a565b34801561045457600080fd5b50610290610b70565b34801561046957600080fd5b50610290610b76565b34801561047e57600080fd5b506102906004803603602081101561049557600080fd5b5035610b7c565b3480156104a857600080fd5b50610290610b8e565b3480156104bd57600080fd5b50610290610b94565b3480156104d257600080fd5b50610290600480360360408110156104e957600080fd5b50600160a060020a038135169060200135610ba7565b34801561050b57600080fd5b506105296004803603602081101561052257600080fd5b5035610bd7565b60408051600160a060020a039687168152949095166020850152838501929092526060830152608082015290519081900360a00190f35b34801561056c57600080fd5b506102906004803603602081101561058357600080fd5b5035610c22565b34801561059657600080fd5b50610290600480360360408110156105ad57600080fd5b5080359060200135610c34565b3480156105c657600080fd5b50610290610d02565b3480156105db57600080fd5b506105f9600480360360208110156105f257600080fd5b50356114e0565b60408051600160a060020a0390971687529415156020870152858501939093526060850191909152608084015260a0830152519081900360c00190f35b34801561064257600080fd5b50610290611546565b34801561065757600080fd5b506106756004803603602081101561066e57600080fd5b503561154c565b60408051958652600160a060020a03909416602086015284840192909252606084015215156080830152519081900360a00190f35b3480156106b657600080fd5b50610290611598565b3480156106cb57600080fd5b50610290600480360360208110156106e257600080fd5b503561159e565b3480156106f557600080fd5b506102906115b0565b34801561070a57600080fd5b506102906004803603604081101561072157600080fd5b50600160a060020a0381351690602001356115b6565b34801561074357600080fd5b506105f96115d1565b34801561075857600080fd5b506102906004803603604081101561076f57600080fd5b50600160a060020a0381351690602001356116c2565b34801561079157600080fd5b506102906116dd565b3480156107a657600080fd5b50610290600480360360208110156107bd57600080fd5b5035600160a060020a03166116e3565b3480156107d957600080fd5b506103f2600480360360208110156107f057600080fd5b50356116f5565b34801561080357600080fd5b506102906004803603604081101561081a57600080fd5b5080359060200135611711565b34801561083357600080fd5b5061029061172c565b34801561084857600080fd5b50610290611732565b34801561085d57600080fd5b506103f2611740565b34801561087257600080fd5b5061025f6118f6565b34801561088757600080fd5b50610290611905565b3390565b60006108a260016052610c34565b905090565b60015490565b600b5481565b600a5490565b60085490565b60025481565b60085481565b60015481565b60045481565b600b5490565b60006108a2600161012d610c34565b600a5481565b600054600160a060020a031690565b600061090b61190b565b50604080516107a081018252603e8152603f6020820152808201919091526041606082015260426080820152604360a0820152604460c080830191909152604560e08301526046610100830152604761012083015260486101408301526049610160830152604a610180830152604b6101a0830152604c6101c0830152604d6101e0830152604e610200830152604f6102208301526050610240830152605161026083015260ab61028083015260b26102a083015260b36102c083015260b46102e083015260b961030083015260ba61032083015260bb61034083015260bc61036083015260bd61038083015260be6103a083015260bf6103c08301526103e082015260c161040082015260c561042082015260c661044082015260c761046082015260ca61048082015260cb6104a082015260cc6104c082015260d06104e082015260d661050082015260d761052082015260da61054082015260dd61056082015260de61058082015260df6105a082015260e26105c082015260e36105e082015260e561060082015260fb61062082015260fc61064082015261010e6106608201526101156106808201526101186106a082015261011b6106c082015261011f6106e082015261012261070082015261012361072082015261012461074082015261012761076082015261012b61078082015280610b0d6000603d610c34565b603d8110610b1757fe5b602002015161ffff1691505090565b60035490565b600054600160a060020a03163314610b4357600080fd5b600955565b600054600160a060020a03163314610b5f57600080fd5b600b55565b60075481565b60055481565b60095490565b60035481565b600e6020526000908152604090205481565b60025490565b336000908152600d602052604090205490565b601360205281600052604060002081815481101515610bc257fe5b90600052602060002001600091509150505481565b6011805482908110610be557fe5b600091825260209091206005909102018054600182015460028301546003840154600490940154600160a060020a03938416955091909216929085565b6000908152600c602052604090205490565b600080838303426040516020018082815260200191505060405160208183030381529060405233446040516020018084805190602001908083835b60208310610c8e5780518252601f199092019160209182019101610c6f565b51815160209384036101000a6000190180199092169116179052600160a060020a03969096166c0100000000000000000000000002920191825250601480820193909352604080518083039094018452603490910190525080519101209050811515610cf657fe5b06840191505092915050565b6000610d0c61192b565b5060408051611de08101825260018152600260208083019190915260039282019290925260046060808301919091526005608080840191909152600660a080850191909152600760c0850152600860e080860191909152600961010080870191909152600a61012080880191909152600b610140880152600c610160880152600d610180880152600e6101a0880152600f6101c088015260106101e08801526011610200880152601261022088015260136102408801526014610260880152601561028088015260166102a088015260176102c088015260186102e08801526019610300880152601a610320880152601b610340880152601c610360880152601d610380880152601e6103a0880152601f6103c08801526103e08701979097526021610400870152602261042087015260236104408701526024610460870152602561048087015260266104a087015260276104c087015260286104e08701526029610500870152602a610520870152602b610540870152602c610560870152602d610580870152602e6105a0870152602f6105c087015260306105e08701526031610600870152603261062087015260336106408701526034610660870152603561068087015260366106a087015260376106c087015260386106e08701526039610700870152603a610720870152603b610740870152603c610760870152603d61078087015260526107a087015260536107c087015260546107e087015260556108008701526056610820870152605761084087015260586108608701526059610880870152605a6108a0870152605b6108c0870152605c6108e0870152605d610900870152605e610920870152605f610940870152610960860194909452606161098086015260626109a086015260636109c086015260646109e08601526065610a008601526066610a208601526067610a408601526068610a608601526069610a80860152606a610aa0860152606b610ac0860152606c610ae0860152606d610b00860152606e610b20860152606f610b408601526070610b608601526071610b808601526072610ba08601526073610bc08601526074610be08601526075610c008601526076610c208601526077610c408601526078610c608601526079610c80860152607a610ca0860152607b610cc0860152607c610ce0860152607d610d00860152607e610d20860152607f610d40860152610d608501929092526081610d808501526082610da08501526083610dc08501526084610de08501526085610e008501526086610e208501526087610e408501526088610e608501526089610e80850152608a610ea0850152608b610ec0850152608c610ee0850152608d610f00850152608e610f20850152608f610f408501526090610f608501526091610f808501526092610fa08501526093610fc08501526094610fe085015260956110008501526096611020850152609761104085015260986110608501526099611080850152609a6110a0850152609b6110c0850152609c6110e0850152609d611100850152609e611120850152609f61114085015261116084015260a161118084015260a26111a084015260a36111c084015260a46111e084015260a561120084015260a661122084015260a761124084015260a861126084015260a961128084015260aa6112a084015260ac6112c084015260ad6112e084015260ae61130084015260af61132084015260b061134084015260b161136084015260b561138084015260b66113a084015260b76113c084015260b86113e084015260c261140084015260c361142084015260c461144084015260c861146084015260c961148084015260cd6114a084015260ce6114c084015260cf6114e084015260d161150084015260d261152084015260d361154084015260d461156084015260d561158084015260d86115a084015260d96115c084015260db6115e084015260dc61160084015261162083015260e161164083015260e461166083015260e661168083015260e76116a083015260e86116c083015260e96116e083015260ea61170083015260eb61172083015260ec61174083015260ed61176083015260ee61178083015260ef6117a0830181905260f06117c084015260f16117e084015260f261180084015260f361182084015260f461184084015260f561186084015260f661188084015260f76118a084015260f86118c084015260f96118e084015260fa61190084015260fd61192084015260fe61194084015260ff6119608401526119808301919091526101016119a08301526101026119c08301526101036119e0830152610104611a00830152610105611a20830152610106611a40830152610107611a60830152610108611a80830152610109611aa083015261010a611ac083015261010b611ae083015261010c611b0083015261010d611b2083015261010f611b40830152610110611b60830152610111611b80830152610112611ba0830152610113611bc0830152610114611be0830152610116611c00830152610117611c20830152610119611c4083015261011a611c6083015261011c611c8083015261011d611ca083015261011e611cc0830152611ce0820192909252610121611d00820152610125611d20820152610126611d40820152610128611d60820152610129611d8082015261012a611da082015261012c611dc08201529081906114d690600090610c34565b60ef8110610b1757fe5b60108054829081106114ee57fe5b600091825260209091206005909102018054600182015460028301546003840154600490940154600160a060020a03841695507401000000000000000000000000000000000000000090930460ff1693919290919086565b60065490565b600f80548290811061155a57fe5b600091825260209091206005909102018054600182015460028301546003840154600490940154929450600160a060020a0390911692909160ff1685565b60055490565b600c6020526000908152604090205481565b60065481565b601460205281600052604060002081815481101515610bc257fe5b336000818152600d602052604081205490918291829182918291829180151561160f5750339650600095508594508493508392508291506116ba9050565b61161761194b565b601080548390811061162557fe5b60009182526020918290206040805160c0810182526005939093029091018054600160a060020a0381168085527401000000000000000000000000000000000000000090910460ff161515948401859052600182015492840183905260028201546060850181905260038301546080860181905260049093015460a0909501859052909d50939b509950975090955093505050505b909192939495565b601260205281600052604060002081815481101515610bc257fe5b60075490565b600d6020526000908152604090205481565b600054600160a060020a0316331461170c57600080fd5b600a55565b601560205281600052604060002081815481101515610bc257fe5b60095481565b60006108a2600160db610c34565b336000818152600d60205260409020548015156118f25761175f61194b565b506040805160c081018252600160a060020a0380851682526001602083018181524294840194855260056060850181815260006080870181815260a088018281526010805497880181559092528751959093027f1b6847dc741a1b0cd08d278845f9d819d87b734759afb55fe2de5cb82a9ae6728101805495511515740100000000000000000000000000000000000000000274ff0000000000000000000000000000000000000000199790981673ffffffffffffffffffffffffffffffffffffffff1990961695909517959095169590951790925594517f1b6847dc741a1b0cd08d278845f9d819d87b734759afb55fe2de5cb82a9ae673830155517f1b6847dc741a1b0cd08d278845f9d819d87b734759afb55fe2de5cb82a9ae67482015592517f1b6847dc741a1b0cd08d278845f9d819d87b734759afb55fe2de5cb82a9ae675840155517f1b6847dc741a1b0cd08d278845f9d819d87b734759afb55fe2de5cb82a9ae676909201919091556118d7611905565b600160a060020a0384166000908152600d6020526040902055505b5050565b600054600160a060020a031681565b60105490565b6107a060405190810160405280603d906020820280388339509192915050565b611de06040519081016040528060ef906020820280388339509192915050565b60c0604051908101604052806000600160a060020a0316815260200160001515815260200160008152602001600081526020016000815260200160008152509056fea165627a7a72305820fa12602dc38f8512f69d7476977838234cda53990737e0231502d4ff7693e1260029",
  "source": "/**\n     jj.length-=18cm\n */\npragma solidity >=0.4.21;\n\ncontract Football {\n\n    address public admin;\n    uint256 public userMap_cnt;\n    uint256 public common_count;\n    uint256 public vip_count;\n    uint256 public rankMap_cnt;\n    uint256 public cardMap_cnt;\n    uint256 public power_count;\n    uint256 public matchMap_cnt;\n    uint256 public saleCardMap_cnt;\n    uint256 public common_card_price;\n    uint256 public vip_card_price;\n    uint256 public power_price;\n\n    mapping(uint256=>uint256) public card_map;//idid\n    mapping(address=>uint256) public user_map;//addressid\n    mapping(uint256=>uint256) public contest_map;//idid\n    \n    Card[] public card_list;//id\n    User[] public user_list;//id\n    Contest[] public contest_list;//id\n\n\n    mapping(address=>uint256[]) public user_contest_map;//,id\n    mapping(address=>uint256[]) public user_card_map;//id\n    mapping(address=>uint256[]) public user_team_map;//cardid\n    mapping(uint256=>uint256[]) public onmarket_map;//\n\n    //idid\n    struct Card { \n        uint256  card_id;\n        address  owner;\n        uint256  player_id;\n        uint256  level;\n        bool  on_market;\n    }\n\n    //(truelist,\n    struct User {\n        address user_address;\n        bool user_free;\n        uint256 last_time;\n        uint256 power;\n        uint256 user_card_cnt;\n        uint256 user_contest_cnt;\n    }\n\n    //\n    struct Contest {\n        address my_address;\n        address challenger_address;\n        uint256 my_score;\n        uint256 challenger_score;\n        uint256 team_point;\n    }\n\n    constructor() public{\n        admin = msg.sender;\n        userMap_cnt = 1;\n        common_count = 1;\n        vip_count = 1;\n        rankMap_cnt = 1;\n        cardMap_cnt = 1;\n        power_count = 1;\n        matchMap_cnt = 1;\n        saleCardMap_cnt = 1;\n        common_card_price = 3;\n        vip_card_price = 1;\n        power_price = 1;\n        User memory user = User(address(0),true,now,0,0,0);\n        user_list.push(user);\n            \n    }\n     \n    //\n    function random(uint256 begin,uint256 end) public view returns(uint256) {\n        uint256 number = uint256(keccak256(abi.encodePacked(abi.encodePacked(now),msg.sender,block.difficulty))) % (end-begin);\n        return number+begin;\n    }\n\n    function get_matchMap_cnt() public view returns(uint256) {\n        return matchMap_cnt;\n    }\n\n    function get_address() public view returns(address) {\n        return msg.sender;\n    }\n\n    function get_userMap_cnt() public view returns(uint256) {\n        return userMap_cnt;\n    }\n\n    function get_cardMap_cnt() public view returns(uint256) {\n        return cardMap_cnt;\n    }\n    \n    function get_vip_count() public view returns(uint256) {\n        return vip_count;\n    }\n\n    function get_common_count() public view returns(uint256) {\n        return common_count;\n    }\n\n    function get_power_count() public view returns(uint256) {\n        return power_count;\n    }\n\n    function get_saleCardMap_cnt() public view returns(uint256) {\n        return saleCardMap_cnt;\n    }\n    \n    function random_all_card() public view returns(uint256) {\n        return uint256(random(1,301));\n    }\n\n    function random_goalkeeper_card() public view returns(uint256) {\n        uint16[61] memory goalKeeperList = [62 , 63 , 64 , 65 , 66 , 67 , 68 , 69 , 70 , 71 , 72 , 73 , 74 , 75 , 76 , 77 , 78 , 79 , 80 , 81 , 171 , 178 , 179 , 180 , 185 , 186 , 187 , 188 , 189 , 190 , 191 , 192 , 193 , 197 , 198 , 199 , 202 , 203 , 204 , 208 , 214 , 215 , 218 , 221 , 222 , 223 , 226 , 227 , 229 , 251 , 252 , 270 , 277 , 280 , 283 , 287 , 290 , 291 , 292 , 295 , 299];\n        return goalKeeperList[random(0, goalKeeperList.length)];\n    }\n\n    function random_not_goalkeeper_card() public view returns(uint256) {\n        uint16[239] memory notGoalKeeperList =[1 , 2 , 3 , 4 , 5 , 6 , 7 , 8 , 9 , 10 , 11 , 12 , 13 , 14 , 15 , 16 , 17 , 18 , 19 , 20 , 21 , 22 , 23 , 24 , 25 , 26 , 27 , 28 , 29 , 30 , 31 , 32 , 33 , 34 , 35 , 36 , 37 , 38 , 39 , 40 , 41 , 42 , 43 , 44 , 45 , 46 , 47 , 48 , 49 , 50 , 51 , 52 , 53 , 54 , 55 , 56 , 57 , 58 , 59 , 60 , 61 , 82 , 83 , 84 , 85 , 86 , 87 , 88 , 89 , 90 , 91 , 92 , 93 , 94 , 95 , 96 , 97 , 98 , 99 , 100 , 101 , 102 , 103 , 104 , 105 , 106 , 107 , 108 , 109 , 110 , 111 , 112 , 113 , 114 , 115 , 116 , 117 , 118 , 119 , 120 , 121 , 122 , 123 , 124 , 125 , 126 , 127 , 128 , 129 , 130 , 131 , 132 , 133 , 134 , 135 , 136 , 137 , 138 , 139 , 140 , 141 , 142 , 143 , 144 , 145 , 146 , 147 , 148 , 149 , 150 , 151 , 152 , 153 , 154 , 155 , 156 , 157 , 158 , 159 , 160 , 161 , 162 , 163 , 164 , 165 , 166 , 167 , 168 , 169 , 170 , 172 , 173 , 174 , 175 , 176 , 177 , 181 , 182 , 183 , 184 , 194 , 195 , 196 , 200 , 201 , 205 , 206 , 207 , 209 , 210 , 211 , 212 , 213 , 216 , 217 , 219 , 220 , 224 , 225 , 228 , 230 , 231 , 232 , 233 , 234 , 235 , 236 , 237 , 238 , 239 , 240 , 241 , 242 , 243 , 244 , 245 , 246 , 247 , 248 , 249 , 250 , 253 , 254 , 255 , 256 , 257 , 258 , 259 , 260 , 261 , 262 , 263 , 264 , 265 , 266 , 267 , 268 , 269 , 271 , 272 , 273 , 274 , 275 , 276 , 278 , 279 , 281 , 282 , 284 , 285 , 286 , 288 , 289 , 293 , 294 , 296 , 297 , 298 , 300];\n        return notGoalKeeperList[random(0, notGoalKeeperList.length)];\n    }\n\n    function random_vip_card() public view returns(uint256) {\n        return uint256(random(1,82));\n    }\n    function random_common_card() public view returns(uint256) {\n        return uint256(random(1,219));\n    }\n\n    function get_admin() public view returns(address) {\n        return admin;\n    }\n\n    function get_card_id(uint256 card_id) public view returns(uint256) {\n        return card_map[card_id];\n    }\n    \n    function get_common_card_price() public view returns(uint256) {\n        return common_card_price;\n    }\n    \n    function get_vip_card_price() public view returns(uint256) {\n        return vip_card_price;\n    }\n\n    function get_power_price() public view returns(uint256) {\n        return power_price;\n    }\n\n    function set_common_card_price(uint256 price) public {\n        require(msg.sender == admin);\n        common_card_price = price;\n    }\n\n    function set_vip_card_price(uint256 price) public {\n        require(msg.sender == admin);\n        vip_card_price = price;\n    }\n\n    function set_power_price(uint256 price) public {\n        require(msg.sender == admin);\n        power_price = price;\n    }\n\n    //\n    function user_login() public view returns(address,bool,uint256,uint256,uint256,uint256){\n        address user_from = msg.sender;\n        uint256 user_id = user_map[user_from];\n        if (user_id == 0){\n            return (msg.sender,false,0,0,0,0);\n        }\n        User memory user = user_list[user_id];\n        return (user.user_address,user.user_free,user.user_card_cnt,user.last_time,user.power,user.user_contest_cnt);\n    }\n\n    function get_user_id() public view returns(uint256) {\n        return user_map[msg.sender];\n    }\n\n    function get_user_count() public view returns(uint256) {\n        return user_list.length;\n    }\n    // \n    function user_register() public {\n        address user_from = msg.sender;\n        uint256 user_id = user_map[user_from];\n        if (user_id == 0){\n            User memory user = User(user_from,true,now,5,0,0);\n            user_list.push(user);\n            user_map[user_from] = get_user_count();\n        }\n    }\n}\n",
  "sourcePath": "/home/hk-journalist/code/TronFootball/contracts/Football.sol",
  "compiler": {
    "name": "solc",
    "version": "0.5.0+commit.1d4f565a.Emscripten.clang"
  },
  "schemaVersion": "3.0.0",
  "updatedAt": "2018-12-31T08:02:25.174Z",
  "devdoc": {
    "methods": {}
  },
  "userdoc": {
    "methods": {}
  }
}